:100000000C942C040C9473040C9473040C947304DB
:100010000C9473040C9473040C9473040C94730484
:100020000C9473040C9473040C94591B0C942B1CA7
:100030000C9489160C9473040C9473040C9473043C
:100040000C9473040C9473040C9473040C94730454
:100050000C9473040C94F1160C9473040C947304B4
:100060000C9473040C9473040C9473040C94730434
:100070000C9473040C9473040C9473040C94730424
:100080000C9473040C9473040C9473040C94730414
:100090000C9473040C9473040C9473040C94730404
:1000A0000C9473040C9473040C9473045505570555
:1000B000620559055B055D055F056105640566051B
:1000C000680573056A056C056E0570057205750592
:1000D000E40CE40C160D160D820E820E820E820EBA
:1000E000560D820E030E030E720E820E820E7B0ED2
:1000F000100E100E100E100E100E100E100E100E10
:10010000100E100E100E100E100E100E100E100EFF
:100110001F0E2D0E340E3B0E450E050F050F170F4B
:10012000170F0E0F170F170F170F050F050F130FD0
:10013000170F170F130F981CBF1CB11DBF1CB11D4B
:100140000B1D2E1DB11D841D931D012702270120AB
:100150000220011F021F01200220002B0014001AA0
:10016000000800150017001C0018000C00120013F6
:10017000002A003900000004001600070009000AE8
:10018000000B000D000E000F002800E10000441DD0
:10019000001B000600190005001100100038005275
:1001A00000E400E000E300E200004000002C00005A
:1001B0004100000042500051004F0001001E001F8E
:1001C00000200021002F003000010001000100018B
:1001D000000100010000002200230024002500335C
:1001E00000340001000100010001000100010026AF
:1001F0000027002D002E003600370001000100010D
:10020000000100005C0100010000430000E5000166
:10021000000000010001000100010035003A003B30
:10022000003C003D00AE00AA004B004A004D004ECD
:10023000000100010000003E003F0040004100AD11
:10024000005000510052004F0029000100010042FF
:1002500000430044004500A80048000100010001DF
:100260000001000100010001000100000001000187
:100270000000000100010001000100010001000177
:100280000001000100010001000100010001000166
:100290000001000100000001000100010001000157
:1002A0000001000100010001000100010001000146
:1002B0000001000100010001000100010001000136
:1002C0000001000100010001000100000001000127
:1002D0000000000100010001000100010001000117
:1002E0000001000100010001000100010001000106
:1002F00000010001000000010001000100010001F7
:1003000000010001000100010001000100010001E5
:1003100000010001000100010001000100010001D5
:1003200000010001000100010001000000010001C6
:1003300000000001000100010001000100010001B6
:1003400000010001000100010001000100010001A5
:100350000001000100000001000100010001000196
:100360000001000100010001000100010001000185
:100370000001000100010001000100010001000175
:100380000001000100010001000100000001000166
:100390000000000100010001000100010001000156
:1003A0000001000100010001000100010001000145
:1003B0000001000100000001000100010001000136
:1003C0000001000100010001000100010001000125
:1003D0000001000100010001000100010001000115
:1003E0000001000100010001000100000001000106
:1003F00000000001000100010001000100010001F6
:1004000000010001000100010001000100010001E4
:1004100000010001000000010001000100010001D5
:1004200000010001000100010001000100010001C4
:1004300000010001000100010001000100010001B4
:1004400000010001000100010001000000010001A5
:100450000000000100010001000100010001000195
:100460000001000100010001000100010001000184
:100470000001000100000001000100010001000175
:100480000001000100010001000100010001000164
:100490000001000100010001000100010001000154
:1004A0000001000100010001000100000001000145
:1004B0000000000100010001000100010001000135
:1004C0000001000100010001000100010001000124
:1004D0000001000100000001000100010001000115
:1004E0000001000100010001000100010001000104
:1004F00000010001000100010001000100010001F4
:1005000000010001000100010001000000010001E4
:1005100000000001000100010001000100010001D4
:1005200000010001000100010001000100010001C3
:1005300000010001000000010001000100010001B4
:1005400000010001000100010001000100010001A3
:100550000001000100010001000100010001000193
:100560000001000100010001000100000001000184
:100570000000000100010001000100010001000174
:100580000001000100010001000100010001000163
:100590000001000100000001000100010001000154
:1005A0000001000100010001000100010001000143
:1005B0000001000100010001000100010001000133
:1005C0000001000100010001000100000001000124
:1005D0000000000100010001000100010001000114
:1005E0000001000100010001000100010001000103
:1005F00000010001000000010001000100010001F4
:1006000000010001000100010001000100010001E2
:1006100000010001000100010001000100010001D2
:1006200000010001000100010001000000010001C3
:1006300000000001000100010001000100010001B3
:1006400000010001000100010001000100010001A2
:100650000001000100000001000100010001000193
:100660000001000100010001000100010001000182
:100670000001000100010001000100010001000172
:100680000001000100010001000100000001000163
:100690000000000100010001000100010001000153
:1006A0000001000100010001000100010001000142
:1006B0000001000100000001000100010001000133
:1006C0000001000100010001000100010001000122
:1006D0000001000100010001000100010001000112
:1006E0000001000100010001000100000001000103
:1006F00000000001000100010001000100010001F3
:1007000000010001000100010001000100010001E1
:1007100000010001000000010001000100010001D2
:1007200000010001000100010001000100010001C1
:1007300000010001000100010001000100010001B1
:1007400000010001000100010001000000010001A2
:10075000000000010001000100010004033000005E
:100760000018033400350072007300740061006EDD
:1007700000640061007200640000000E0364007AEF
:1007800000740065006300680000000403090409A8
:10079000023B00020100A0FA09040000010301016C
:1007A0000009211101000122400007058103080012
:1007B0000A090401000103000000092111010001E0
:1007C000223B000705820320000A120110010000ED
:1007D0000008EDFE60600100010203010501090649
:1007E000A1018505050719E029E7150025019508F0
:1007F0007501810205081901290595057501910208
:100800009501750391010507190029EF15002501D0
:1008100095F075018102C005010906A101050719BE
:10082000E029E715002501950875018102950175FC
:1008300008810105081901290595057501910295A1
:1008400001750391010507190029FF150026FF0016
:10085000950675088100C00011241FBECFEFDAE0B5
:10086000DEBFCDBF04B603FE27C080910302909186
:100870000402A0910502B09106028730904BA74078
:10088000B04BD1F4109203021092040210920502B0
:100890001092060214BE84B7877F84BF0FB6F89407
:1008A000A89580916000886180936000109260003C
:1008B0000FBEE0E0F8E3099511E0A0E0B1E0EEE55D
:1008C000FCE302C005900D92AE31B107D9F722E0EA
:1008D000AEE1B1E001C01D92A330B207E1F70E9482
:1008E0007D180C942D1E0C940000623039F4FC012C
:1008F0008281882319F08AE491E0089580E090E0F5
:10090000089508950895089581E0089581E0089577
:100910000C9486040E943715811102C00E94A5150F
:100920000C9494080C9496080C9483040C949404EE
:1009300008950E94F50E0E9498042FEF84E39CE036
:10094000215080409040E1F700C000000C94171740
:10095000FF920F931F93CF93DF938C01FC01C08113
:10096000D18180914701811113C08281882349F090
:10097000CE010E942A14F82E682FCE010E94CF13B8
:1009800004C0CE010E94FE13F82EBE018F2D04C0BC
:10099000CE010E942A14BE010E942606EC01B80175
:1009A0000E948804882309F449C1C63DFCE5DF079D
:1009B00009F4ABC0B0F4C531ECE5DE0768F4C23031
:1009C000FCE5DF0708F04FC0C1158CE5D80701F141
:1009D000C130DC4529F125C1C631DC4509F4FAC036
:1009E00020C1CB3D8CE5D80771F150F4C73DFCE543
:1009F000DF0709F4ADC0C83DDC4509F4D0C011C122
:100A0000CC3DECE5DE0731F1CD3DDC45A1F009C17F
:100A1000F8018281882309F411C10E9499040EC152
:100A2000F8018281882309F409C18091CB0181609A
:100A30008093CB0103C1F8018281882309F4FEC0B1
:100A40000E94A515FBC0F8018281882309F4F6C035
:100A500080E006C0F8018281882309F4EFC082E0BB
:100A60000E941C19EBC0F8018281882309F4DEC0C2
:100A70000E943715811102C00E94A5150E944A15D7
:100A800090E09093F5018093F401FE01E350FC4562
:100A9000E231F10530F4EA5AFF4F8091F4010C94F1
:100AA000E51D8091F401816027C0826025C08460CB
:100AB00023C0806121C080621FC080641DC0806827
:100AC0001BC08460886018C08E7F16C08D7F14C0E4
:100AD0008B7F12C08F7E10C08F7D0EC08F7B0CC0AD
:100AE0008F770AC08B7F877F07C087FB222720F97B
:100AF00091E0922790FB87F98093F4018091F401B3
:100B00000E944E150E94F50E99C0F801828188233B
:100B100051F0109223010E94BB1690932001809304
:100B20001F0182E022C08091230181110FC08091BA
:100B30001F01909120010E94C716883C910530F456
:100B400086E20E942A0B86E20E94410C82E024C0C9
:100B5000F8018281882361F0109224010E94BB1663
:100B6000909322018093210180E20E94A00C66C034
:100B70008091240181110FC0809121019091220167
:100B80000E94C716883C910530F487E20E942A0B28
:100B900087E20E94410C80E20E94A70C4FC0F8013E
:100BA00082818111D9CF809124018111F4CF80916C
:100BB0002101909122010E94C716883C910558F7A7
:100BC00080E20E94A70C88E20E942A0B88E20E9421
:100BD000410C34C00E94FB14282FF80182814091FF
:100BE000000150910101882379F02A7A91E009F4FB
:100BF00090E090931E01911102C069E201C065E38B
:100C0000CA010E940C160AC080911E01811102C007
:100C100069E201C065E3CA010E9417160E94C81468
:100C20000DC081E08093230180932401C801DF91EE
:100C3000CF911F910F91FF900C94840480E0DF917D
:100C4000CF911F910F91FF90089508959CE0799F97
:100C5000F001112490E3899FE00DF11D1124E60FAE
:100C6000F11DEE0FFF1FE55AFE4F859194910895F7
:100C7000880F991FFC01E55AF84F859194910895CA
:100C8000CF93DF930E9426060E94F407EC018115A2
:100C900020E59207F0F5811530E4930708F023C1B1
:100CA000883E910500F5803E910508F099C1883A8B
:100CB000910570F4853A910508F09EC08130910548
:100CC00009F48EC108F43FC1049708F089C13BC103
:100CD0008F3B910508F49BC0803C910508F433C11B
:100CE000805C9109F3C08115904258F4C11581E0F0
:100CF000D80708F075C1C03FD10508F424C1D065FC
:100D00006FC1C11590E3D90708F0E3C0CE019F7011
:100D1000DDC0811525E5920708F043C0811534E553
:100D2000930708F0F7C0811542E5940708F5C1154F
:100D300081E5D80708F0DAC08C2F837021E030E01D
:100D400002C0220F331F8A95E2F73C68CE0154E0BF
:100D5000969587955A95E1F78370382BCF70C69595
:100D6000C69540E2C49FE0011124C22BD32B38C1A9
:100D7000282F2695269583709927C115D34508F00D
:100D8000BAC040E2249F90011124C1E0D0E002C02B
:100D9000CC0FDD1F8A95E2F72C2B3D2BE901DC6897
:100DA0001FC1811549E59407A0F4C11588E5D8074E
:100DB00008F0B5C0C11596E5D90708F0C4C08C2F5E
:100DC0000E9471088F71C82FD0E0DC2FCC27D06231
:100DD00007C181152AE5920708F4A6C0905681152F
:100DE000904208F0B0C08D2F8F710E947108DD27EE
:100DF000D0628F71D82BF4C0853A910509F4A6C052
:100E0000863A910509F0A5C0C2E8D0E4E9C0883A65
:100E1000910509F4A1C0893A910509F4A0C08A3A64
:100E2000910509F49FC08B3A910509F49EC08C3A54
:100E3000910509F49DC08B3B910509F49CC08C3B46
:100E4000910509F49BC08D3A910509F49AC0803B45
:100E5000910509F499C08E3A910509F498C08F3A2A
:100E6000910509F497C0813B910509F496C0823B36
:100E7000910509F495C0833B910509F494C0843B26
:100E8000910509F493C0853B910509F492C0863B16
:100E9000910509F491C0873B910509F490C0883B06
:100EA000910509F48FC0893B910509F48EC08D3BF3
:100EB000910509F48DC08E3B910509F48CC08A3BE5
:100EC000910509F48BC0C0E0D4E48AC00E943806C2
:100ED00038C0CE019927D3FF03C0EC01D86C80C085
:100EE000EC01D06C7DC0DF70D06A7AC0DC2FCC27DB
:100EF000C16FD06A75C040E2249F90011124C1E007
:100F0000D0E002C0CC0FDD1F8A95E2F7C22BD32BB5
:100F1000DA6866C0D82FCC27C46FD06A61C0DC2FD6
:100F2000CC27C06FD06A5CC0282F2F70206E30E0B5
:100F3000306A84E0D695C7958A95E1F7CF70C901EC
:100F40009C2BEC014DC0C0E0D0E04AC0C1E8D0E429
:100F500047C0C3E8D0E444C0C2EED4E441C0C9EE07
:100F6000D4E43EC0CAEED4E43BC0C5EBD4E438C000
:100F7000C6EBD4E435C0C3EBD4E432C0C4EBD4E454
:100F80002FC0C7EBD4E42CC0CCECD4E429C0CDEC0A
:100F9000D4E426C0C3E8D5E423C0CAE8D5E420C021
:100FA000C2E9D5E41DC0C4E9D5E41AC0C1E2D6E463
:100FB00017C0C3E2D6E414C0C4E2D6E411C0C5E24F
:100FC000D6E40EC0C6E2D6E40BC0C7E2D6E408C041
:100FD000CFE6D4E405C0C0E7D4E402C0CAE2D6E458
:100FE000CE01DF91CF9108958238910549F1B0F497
:100FF0008133910509F458C048F48932910509F408
:101000004EC08A32910509F454C008958533910584
:1010100009F440C08933910599F00895833E910504
:1010200029F138F4803E910591F0823E9105A1F0BE
:101030000895863E9105F9F0873E910531F10895B6
:101040002091F40120FD3AC021FD38C0089580911F
:10105000F40180FD35C032C08091F40182FF32C0BE
:101060008091F40184FD30C083EE39C08091F40199
:1010700082FD28C0F5CF8091F40183FF27C08091C5
:10108000F40184FD21C087EE2AC08091F40183FD24
:101090001DC0F5CF8091F40185FD1AC01BC0809161
:1010A000F40185FD17C014C08091F40186FD14C0C1
:1010B00015C08091F40186FD11C00EC080EE0FC0F6
:1010C00089E30DC082EE0BC080E009C086EE07C048
:1010D00089E205C085E303C08AE201C081E390E0B4
:1010E00008959091F40192FF0DC0282F28712830A7
:1010F00019F4877F846006C0282F2471243011F4EE
:101100008B7F886093FF0DC0282F2871283119F438
:10111000877E846106C0282F2471243111F48B7ED0
:10112000886194FD877E08950C9481040C94820458
:10113000E9E1F1E041E050E024E02E0F9191A92F88
:10114000A295AF70B0E091963C9191979F70BA01D3
:1011500002C0660F771F9A95E2F7CB018095832333
:1011600091968C932E13EACFADE0B1E041E050E0D0
:101170002CE02A0F8D91E82FE295EF70F0E031A17D
:101180008F70BA0102C0660F771F8A95E2F7CB0114
:10119000962F9095932391A392A1892B82A32A1332
:1011A000E9CF10922E0110922D011092260110927B
:1011B00025011092300110922F01109228011092F7
:1011C0002701109232011092310110922A011092DF
:1011D0002901109234011092330110922C011092C7
:1011E0002B0184E00E9498090C948A044F925F922C
:1011F0007F928F929F92AF92BF92CF92DF92EF92A7
:10120000FF920F931F93CF93DF9329E1422E21E0AA
:10121000522EADE2B1E020E001E010E05D018D90E2
:101220009C90119711961C921E92E20189912E01B9
:10123000E82FE295EF70F0E031A18F70A80102C0B5
:10124000440F551F8A95E2F7CA01342B31A342A1FE
:10125000382F3095432342A350EA5A95F1F79DE089
:10126000C92E91E0D92E40E050E0E60179906E0160
:10127000672D62956F7070E0EB01E8A06D917C9135
:101280001197F12CD72DDF7002C0F594E794DA9511
:10129000E2F7E0FC08C07801042E02C0EE0CFF1C4F
:1012A0000A94E2F702C0E12CF12C6E297F291196F5
:1012B0007C936E934F5F5F4F4C305105B1F691A117
:1012C000392331A392A1892B82A3129681E0F501E3
:1012D000408151818416950609F480E0282BF1E0C5
:1012E000A533BF0709F09ACF44E065E271E08DE2D3
:1012F00091E00E9499090E94920481E0DF91CF91D0
:101300001F910F91FF90EF90DF90CF90BF90AF9023
:101310009F908F907F905F904F900895E82FF0E01E
:10132000EE0FFF1FEB5DFE4F8081918108950895C0
:101330000895FF920F931F93CF93DF93F82E092FF9
:10134000162FD72FC42F222349F081E08093370135
:101350000E94BB169093360180933501809137012E
:101360008823B9F080913501909136010E94C7160B
:10137000069778F0EF2DF02FA12FBD2F80E08C176E
:1013800031F0219131912D933D938F5FF8CF1092E1
:101390003701DF91CF911F910F91FF9008959093A6
:1013A0003D0180933C010895E0913C01F0913D01A5
:1013B000309721F00190F081E02D099480E00895AC
:1013C000E0913C01F0913D01309799F020910C01A2
:1013D000222359F02091F40127FF07C0DC012C9152
:1013E00011962C93119725E02C930280F381E02D28
:1013F0000994089520913A0130913B018217930797
:1014000071F090933B0180933A01E0913C01F0919F
:101410003D01309721F00680F781E02D0994089571
:1014200020913801309139018217930771F0909320
:10143000390180933801E0913C01F0913D013097F2
:1014400021F00084F185E02D0994089585B7806826
:1014500085BF85B7806885BF089508950E94260AD4
:101460000C942D0A81E008950E94B2160E949808FB
:101470000C943B174F925F927F928F929F92AF9204
:10148000BF92CF92DF92EF92FF920F931F93CF9371
:10149000DF93CDB7DEB72A970FB6F894DEBF0FBE45
:1014A000CDBF0E94F6080E94320A811111C08FEF51
:1014B00089838A831B820E94BB168160782F9D835B
:1014C0008C8349815A816B818D810E94F60A57C0B5
:1014D0009FE3C92E91E0D92E00E010E0AA24A39446
:1014E000B12C702E802F0E948E094C01F601419084
:1014F00051906F01482659264114510431F40F5F71
:101500001F4F0430110569F7D2CF8091CB0181FDC7
:101510000E94970920E030E07501022E02C0EE0C17
:10152000FF1C0A94E2F7C70184219521892B09F158
:101530002E837F828E209F2091E0892809F490E0FD
:1015400098870E94BB168160782F9A8789874E8181
:101550005F8168858A850E94F60A000F111FF801D5
:10156000E15CFE4F80819181E826F926F182E082DC
:1015700006C02F5F3F4F2C30310571F6C0CF109160
:101580003E010E94D4091817D9F00E94D409809313
:101590003E012A960FB6F894DEBF0FBECDBFDF9195
:1015A000CF911F910F91FF90EF90DF90CF90BF9060
:1015B000AF909F908F907F905F904F900C94960487
:1015C0002A960FB6F894DEBF0FBECDBFDF91CF9144
:1015D0001F910F91FF90EF90DF90CF90BF90AF9051
:1015E0009F908F907F905F904F900895CF93DF935F
:1015F000CDB7DEB72B970FB6F894DEBF0FBECDBFC9
:101600004F83588769877A878B87DE01119686E03A
:10161000FD0111928A95E9F785E0FE013796019068
:101620000D928A95E1F749815A816B817C818D8188
:101630009E810E949F112B960FB6F894DEBF0FBEBD
:10164000CDBFDF91CF910895FC01808191810E94EF
:1016500069140895882309F413C1682F8238C1F4EE
:101660000E94D40981FD0CC169E380910001909131
:1016700001010E940C160E94C8142FEF81EE94E025
:10168000215080409040E1F700C0000069E319C09C
:101690008338F9F40E94D40980FDF2C063E580919B
:1016A0000001909101010E940C160E94C8142FEFB6
:1016B00081EE94E0215080409040E1F700C00000AE
:1016C00063E580910001909101010E9417160C942E
:1016D000C8148438C1F40E94D40982FDD1C067E4E3
:1016E00080910001909101010E940C160E94C81483
:1016F0002FEF81EE94E0215080409040E1F700C050
:10170000000067E4DECF8CEF860F813A38F48091D9
:101710000001909101010E940C16D9CF80E2860F42
:10172000883048F4677081E001C0880F6A95EAF755
:101730000E94FE14CCCF8BE5860F833070F4653A9F
:1017400029F0663A31F083E890E005C081E890E046
:1017500002C082E890E00C94FA0988E5860F873190
:1017600008F08EC0683A09F445C0693A09F445C0EA
:101770006A3A09F445C06B3A09F445C06C3A09F479
:1017800045C06B3B09F445C06C3B09F445C06D3A5C
:1017900009F445C0603B09F445C06E3A09F445C000
:1017A0006F3A09F445C0613B09F445C0623B09F456
:1017B00045C0633B09F445C0643B09F445C0653B43
:1017C00009F445C0663B09F445C0673B09F445C0D0
:1017D000683B09F445C0693B09F445C06D3B09F419
:1017E00045C06E3B09F445C06A3B09F445C080E042
:1017F00090E044C082EE90E041C089EE90E03EC0AF
:101800008AEE90E03BC085EB90E038C086EB90E03C
:1018100035C083EB90E032C084EB90E02FC087EBC3
:1018200090E02CC08CEC90E029C08DEC90E026C0BC
:1018300083E891E023C08AE891E020C082E991E04A
:101840001DC084E991E01AC081E292E017C083E2F2
:1018500092E014C084E292E011C085E292E00EC0F2
:1018600086E292E00BC087E292E008C08FE690E04B
:1018700005C080E790E002C08AE292E00C94100A72
:101880000895882309F45BC0682F823879F40E9498
:10189000D40981FF54C069E3809100019091010156
:1018A0000E940C160E94C81469E310C08338B1F47A
:1018B0000E94D40980FF43C063E5809100019091AC
:1018C00001010E940C160E94C81463E5809100017A
:1018D000909101010E9417160C94C814843879F471
:1018E0000E94D40982FF2BC067E48091000190918F
:1018F00001010E940C160E94C81467E4E7CF8CEF28
:10190000860F813A18F380E2860F883048F46770BA
:1019100081E001C0880F6A95EAF70E940415DCCFC8
:101920008BE5860F833020F480E090E00C94FA0978
:10193000685A673120F480E090E00C94100A089512
:10194000882321F00E94FE140C94C8140895882363
:1019500021F00E9404150C94C81408954F925F92D0
:101960006F927F92BF92CF92DF92EF92FF920F938E
:101970001F93CF93DF937C01D62FC72FFC011581D6
:1019800012951F70028101110E941B150E94C11443
:10199000882379F0002369F080E28D0F883048F0C9
:1019A00082E00E94AA140E94C11491E0B82EB926C8
:1019B00001C0B12CCC2EC2948FE0C822D12CF601EC
:1019C000E859FF4F0C94E51D8C2F807FCF70882342
:1019D00011F0C295C07F002399F0CC2309F46DC1AA
:1019E00080E28D0F883010F0D11104C08C2F0E943E
:1019F000FE1403C08C2F0E940E150E94C8145DC1F6
:101A00008D2F0E94410CCC2309F47CC180E28D0F04
:101A1000883010F0D11104C08C2F0E94041503C02F
:101A20008C2F0E9414150E94C8146CC18C2F807FCB
:101A3000CF70803211F0C295C07FDD2319F0D13014
:101A4000C9F022C0002371F0112341F0113031F4AC
:101A50000E9434158C2B0E942E1554C10E943415FF
:101A60008C2B1DC0112319F0113009F44BC10E94B9
:101A700031151AC0002321F0163008F043C10EC002
:101A8000153008F03FC110C0002361F0112331F080
:101A9000F701858180FF11C18F7085838C2F0E9493
:101AA000A00C30C111111AC18C2FC6C08C2F8370AD
:101AB00009F050C0011132C18D2F82958695877033
:101AC000880F880F9D2F9F70492E512C612C712CEF
:101AD000082E04C0440C551C661C771C0A94D2F7CF
:101AE000D4FF14C00FE010E020E030E0B901A801FD
:101AF00004C0440F551F661F771F8A95D2F7CB018C
:101B0000BA01609570958095909503C060E070E093
:101B1000CB01C695C695C370D0E0C230D10561F047
:101B2000C330D10581F06429752986299729219729
:101B300071F00E94E412F2C0642975298629972960
:101B40000E94F612EBC00E94E412C301B2010E948F
:101B5000D212E4C0002319F08C2F817001C0869549
:101B6000882309F4DBC08D2F829586958770880FB6
:101B7000880F9D2F9F70492E512C612C712C082E9F
:101B800004C0440C551C661C771C0A94D2F7D4FF81
:101B900014C00FE010E020E030E0B901A80104C05B
:101BA000440F551F661F771F8A95D2F7CB01BA01E4
:101BB000609570958095909503C060E070E0CB01D2
:101BC000C695C695C3704C2F50E04230510569F060
:101BD0004330510589F064297529862997294130B8
:101BE000510571F00E94AA1399C0642975298629AC
:101BF00097290E94BC1392C00E94AA13C301B2018C
:101C00000E9498138BC08D2F90E0FC01E05EF109DB
:101C1000E531F10508F04DC0E858FF4F0C94E51D83
:101C2000DF708C2F8F71002321F00E9431138D2FD4
:101C300036CF0E9452138D2F0E94A70C63C0002341
:101C400041F0153008F05EC08C2F8F710E94771321
:101C500059C0163008F056C0F7CF002339F08C2F4A
:101C60008F710E9431134EC00023C9F38C2F8F71E6
:101C70000E94521347C0002329F08C2F8F710E94BD
:101C80001C1340C00E9417133DC0002349F0CF71C0
:101C90008C2F0E94311363E08C2F0E94A11432C05C
:101CA00081E00E94AA14123068F182E00E94AA1416
:101CB00029C0002331F0112391F28D2F0E942A0BAD
:101CC00021C0112399F2D93349F45FEF67EE73E035
:101CD000515060407040E1F700C000008D2F0E941D
:101CE000410C10C04C2F4F706D2FC7010E9475041E
:101CF0000E94431217C04C2F4F706D2FC7010E94D6
:101D0000250610C088E0C816D10441F05CF0EAE076
:101D1000CE1AD108F2E0CF16D10420F40E94D409E3
:101D20000E949604BB20F1F00E949D1480FD1AC011
:101D3000F70112820E9497140E943113C7010E947A
:101D4000C00E0E949714DF91CF911F910F91FF90C9
:101D5000EF90DF90CF90BF907F906F905F904F900B
:101D60000C945213DF91CF911F910F91FF90EF9040
:101D7000DF90CF90BF907F906F905F904F900895CD
:101D80000F931F93CF93DF93EC01888199812B816F
:101D90003C81232BB9F09F3F11F48F3F99F0CE0186
:101DA0000E94A804882371F0688179818A810E9449
:101DB00074148C010E94CE130E94CF12B801CE0180
:101DC0000E94AE0CDF91CF911F910F9108950E9458
:101DD0001B150E942B150C94C81480910001909142
:101DE00001010E9422160C94E70E0E940B150C9420
:101DF000ED0EE92FE295EF70F0E03297EE30F1054D
:101E0000B0F4E357FF4F0C94E51D803F91F018F4B8
:101E1000803E68F40EC0843F51F40BC0803E48F011
:101E2000813F29F406C093FB882780F9089580E05C
:101E3000089581E008950E9469140E94F90E0895A2
:101E4000CF93DF9300D000D01F92CDB7DEB70F90B5
:101E50000F900F900F900F90DF91CF910895CF9337
:101E6000DF9300D000D000D0CDB7DEB726960FB6F6
:101E7000F894DEBF0FBECDBFDF91CF9108951F93C1
:101E8000CF93DF93C091480116E080914901C817B4
:101E900099F0D0E01C9FF0011D9FF00D1124E65B2E
:101EA000FE4F4081518162817381848195810E94BE
:101EB0002F0F2196C770E9CFDF91CF911F91089521
:101EC00040917A0150917B0160917C0170917D017C
:101ED00080917E0190917F010C942F0F80917F0162
:101EE00082958F7009F054C080917C01882309F499
:101EF0004FC080914801A091490160917A01709191
:101F00007B0140917D0150917E01B6E08A1709F472
:101F10003FC090E041155105C1F17F3F11F46F3F83
:101F2000A1F1B89FF001B99FF00D1124E65BFE4FBF
:101F3000218172132AC02081621327C022812111BE
:101F400024C0238134812417350710F4215031092E
:101F5000241B350B283C3105C0F420917F012F70E4
:101F6000206120937F0126E0289FF001299FF00D3A
:101F70001124E15BFE4F80818F70806180838AE74E
:101F800091E00E94C00E0C943F0F01968770BECF67
:101F90000895CF92DF92EF92FF920F931F93CF930A
:101FA000DF93CDB7DEB762970FB6F894DEBF0FBEF2
:101FB000CDBF8C0185E0F801DE011D9601900D92E8
:101FC0008A95E1F7D8014C9111965C911197129680
:101FD0006C9112971396CD90DC90149730917A0102
:101FE00070917B0180917D0190917E01009709F4B1
:101FF0006BC17F3F19F43F3F09F466C1E0907C015B
:10200000EE2009F4C0C020917F01C816D90628F03F
:10201000F601E81BF90BCF0104C0809590958C0D5B
:102020009D1DFF24F394883C910578F0F12C207FCE
:1020300009F0C6C07C2DD98AC88A89890E94200FE0
:102040008AE791E00E94C00EB1C0822F807F09F024
:1020500046C0751314C0341312C0611110C02F7024
:10206000206120937F010E94600F8AE791E00E9427
:10207000C00E80917F01D80115968C932EC0CD287B
:1020800019F15F3F11F44F3FF9F0F62E61111CC0BA
:10209000809148012091490136E0821709F45AC025
:1020A00090E0389FF001399FF00D1124E65BFE4F60
:1020B0007181571306C07081471303C0728171117B
:1020C00003C001968770E9CFF62E662309F427C175
:1020D00080917F01816080937F01F12C20C1751375
:1020E00008C0341306C0611104C080917F01D8017B
:1020F000C3C04D875E878D859E856A8B0E941B0FAE
:102100006A898823E1F16623D1F120917F01822F32
:1021100082958F7090E0029774F080917A0190918F
:102120007B0198878F831986DB86CA862C87CE0130
:1021300007960E94C00E86E0F801AAE7B1E0019080
:102140000D928A95E1F70E946E0F0E94600FFF24A6
:10215000F394E5C04D875E878D859E850E94691446
:10216000292F22952F7030E0223031050CF0CBC0A2
:102170009F7009F0C5C0805E883008F4D0C0C801E7
:102180000E94C00EE4CFC816D90608F453C0F60169
:10219000E81BF90BCF01883C910508F450C0F12CE5
:1021A0007C2DD98AC88A89890E94200FEAE7F1E04C
:1021B00086E0DF011D928A95E9F70E94600FAFC0AB
:1021C000751314C0341312C0611110C080917F01C7
:1021D000F8018583C8010E94C00E86E0EAE7F1E0BD
:1021E000DF011D928A95E9F7FE2C99C04D875E8725
:1021F0008D859E856A8B0E941B0F6A89882309F44E
:10220000BECF662309F4BBCF20917F01822F829538
:102210008F7090E002970CF48ECF80917A019091AC
:102220007B019A8389831B82DD82CC822E83CE013F
:1022300001967FCF809590958C0D9D1DACCFF62E8D
:10224000662309F49CCF75132EC034132CC0209143
:102250007F0120FD1FC0822F82958F70D9F0D80199
:1022600015962C9315978F3049F08F5F982F929584
:10227000907F822F8F70892B15968C93C8010E94B6
:10228000C00E86E0F801AAE7B1E001900D928A95B0
:10229000E1F793CF86E0F801AAE7B1E001900D9253
:1022A0008A95E1F73CC04D875E878D859E850E94AB
:1022B0001B0F811140CF80917F01816080937F014E
:1022C000C8010E94C00E2BC0662309F458CF4D8769
:1022D0005E878D859E850E941B0FF82E882309F44A
:1022E0004ECF86E0F801AAE7B1E001900D928A9501
:1022F000E1F78AE791E00E94240B0E946E0F5DCF08
:10230000811139CF0CC0243031050CF038CF9F70CB
:1023100009F431CFF8019581907F09F02CCF8F2DF2
:1023200062960FB6F894DEBF0FBECDBFDF91CF919E
:102330001F910F91FF90EF90DF90CF9008951F9322
:10234000CF93DF93CDB7DEB72C970FB6F894DEBFEF
:102350000FBECDBF4F83588769877A878B879C874D
:10236000CE0107960E94C90F882369F08F81988556
:102370002A853B85232BF1F19F3F09F063C08F3FF6
:1023800009F060C037C086E0FE013796DE01119685
:1023900001900D928A95E1F76F817885EA85FB853A
:1023A000309741F17F3F11F46F3F21F120914901B6
:1023B00030E0C9010196877099274091480150E0AB
:1023C0008417950709F447C069837A83FD83EC83FA
:1023D00096E0929FD001939FB00D1124A65BBE4F53
:1023E000FE01319601900D929A95E1F78093490193
:1023F0000E943F0F16E08091480190914901891792
:10240000C1F1189FC0011124865B9E4F0E94C90F25
:10241000882379F1E09148011E9FF0011124E65BC9
:10242000FE4F4081518162817381848195810E9438
:102430002F0F8091480190E0019687709927809333
:102440004801D9CF4F81588569857A858B859C85D0
:102450000E942F0FCFCF0E94F50E109249011092CB
:102460004801EAE7F1E086E0DF011D928A95E9F78D
:10247000C1CF2C960FB6F894DEBF0FBECDBFDF9153
:10248000CF911F910895EF92FF920F931F93CF93D7
:10249000DF938C01892B09F46CC0F12CEE24E394BA
:1024A000E8012196F8018491843740F4843008F0E3
:1024B00051C0813081F0823019F15BC0853709F459
:1024C00044C0A8F19CE7980F903708F052C08F776E
:1024D0000E94410C41C00E5F1F4FFE01C49180E27B
:1024E0008C0F883048F4C7708E2D01C0880FCA95B4
:1024F000EAF70E941E1514C08C2F0E942A0B2DC0D3
:102500000E5F1F4FFE01C49180E28C0F883058F49B
:10251000C7708E2D01C0880FCA95EAF70E94241556
:102520000E94C8141AC08C2F0E94410C16C00E5F66
:102530001F4FFE01C491CC2381F08FE99FE00197EA
:10254000F1F700C00000C150F6CF0E5F1F4FFE0133
:10255000F49003C00E942A0B8E018F2D882309F46A
:102560009FCFEFE9FFE03197F1F700C00000815005
:10257000F5CFDF91CF911F910F91FF90EF900895CC
:1025800008950C94C0120E94C1126093A20170932E
:10259000A3018093A4019093A5010C94E70E0895E4
:1025A0000C94C3120F931F930091A2011091A301E9
:1025B0002091A4013091A501602B712B822B932BCC
:1025C0001F910F910C94C3120F931F930091A201BE
:1025D0001091A3012091A4013091A50160237123E2
:1025E000822393231F910F910C94C3120F931F9377
:1025F0000091A2011091A3012091A4013091A501A5
:1026000060277127822793271F910F910C94C31283
:1026100008950C9408130E94091360939E0170930F
:102620009F018093A0019093A1010C94E70E60E0BC
:1026300070E0CB010C940B130F931F9341E050E01B
:1026400060E070E08A019B0104C0000F111F221F8F
:10265000331F8A95D2F7C901B8011F910F910C94CD
:102660000B130F931F9341E050E060E070E004C053
:10267000440F551F661F771F8A95D2F780919E01E0
:1026800090919F01A091A001B091A1018A019B01AD
:10269000082B192B2A2B3B2BC901B8011F910F9135
:1026A0000C940B130F931F9341E050E060E070E037
:1026B00004C0440F551F661F771F8A95D2F74095B7
:1026C00050956095709580919E0190919F01A09189
:1026D000A001B091A1018A019B01082319232A239B
:1026E0003B23C901B8011F910F910C940B130F9359
:1026F0001F9341E050E060E070E004C0440F551FBC
:10270000661F771F8A95D2F780919E0190919F0155
:10271000A091A001B091A1018A019B01082719276E
:102720002A273B27C901B8011F910F910C940B1365
:102730000F931F9300919E0110919F012091A00182
:102740003091A101602B712B822B932B1F910F9144
:102750000C940B130F931F9300919E0110919F01F6
:102760002091A0013091A101602371238223932342
:102770001F910F910C940B130F931F9300919E01C7
:1027800010919F012091A0013091A1016027712734
:10279000822793271F910F910C940B1308952CE01F
:1027A000929F800D1124A82FA695A695A6958770B7
:1027B00051E001C0550F8A95EAF785E0A89FD00146
:1027C000112420E030E070E0F901EA0FFB1FE0582F
:1027D000FE4F4081CB01022E02C0969587950A9448
:1027E000E2F7817099278195842785238427808348
:1027F0002F5F3F4F2530310539F708952CE0929F28
:10280000800D1124682F669566956695982F9770B0
:1028100085E0689FB001112440E050E080E0FA01BB
:10282000E60FF71FE058FE4F208130E0092E02C06E
:10283000369527950A94E2F721703327042E01C0BC
:10284000220F0A94EAF7822B4F5F5F4F4530510504
:1028500031F70895CF92DF92EF92FF920F931F937B
:10286000CF93DF938C01C090A201D090A301E090A0
:10287000A401F090A50180919E0190919F01A091EB
:10288000A001B091A101C82AD92AEA2AFB2ACFE1E6
:10289000D0E0D701C6010C2E04C0B695A795979538
:1028A00087950A94D2F780FF06C0B8018C2F0E944A
:1028B0004006019721F4219760F780E001C08C2F3A
:1028C000DF91CF911F910F91FF90EF90DF90CF900C
:1028D0000895CF93DF93EC010E942A14BE010E9459
:1028E0004006DF91CF9108951F93CF93DF93EB01C3
:1028F00090914701992321F0CB010E94691413C0E4
:10290000882349F0CB010E942A14182F682FCE018A
:102910000E94CF1304C0CB010E94FE13182FBE01EA
:10292000812F0E944006DF91CF911F9108958091E1
:10293000A60185958595859508958091A601877056
:10294000089598E0899F90011124262B2093A601D9
:102950000C9431132091A601809582238093A601C7
:10296000982F977069F430E0482F082E000C550B13
:102970002417350729F08595859585950C94521374
:1029800008959091A601977081E009F480E0089580
:10299000E0910001F09101018091CA018083E091F2
:1029A0000001F091010190818091C901892B808300
:1029B000E0910001F091010190818091C801892B83
:1029C00080838091A701882381F0E0910001F0913C
:1029D00001019081892B80838091000190910101F8
:1029E0000E94A71581111092A7018091000190917A
:1029F00001010C94E0098091CA0108959091CA01E7
:102A0000892B8093CA01089580959091CA018923EA
:102A10008093CA0108951092CA0108959091C90146
:102A2000892B8093C901089580959091C9018923CC
:102A30008093C90108951092C90108959091C80129
:102A4000892B8093C801089580959091C8018923AE
:102A50008093C80108951092C80108958093A7013A
:102A600008951092A70108958091A701089580E02C
:102A700090E00E94F31D21E08D3E9E4F09F020E082
:102A8000822F089582E090E00C94EB1D83E090E0AB
:102A90000C94EB1D84E090E00C94EB1D682F84E017
:102AA00090E00C94F91DAB01BC018FE090E00C9418
:102AB0000B1EAB01BC0183E190E00C940B1E60E0A7
:102AC00070E0CB010C94591560E070E0CB010E94DE
:102AD00053150C945F156DEE7EEF80E090E00E9440
:102AE000171E60E082E090E00E94F91D60E083E044
:102AF00090E00E94F91D1092A2011092A301109281
:102B0000A4011092A50160E084E090E00E94F91D0C
:102B100060E085E090E00E94F91D60E086E090E0D2
:102B20000E94F91D6FEF87E090E00E94F91D40E0E0
:102B300050E0BA0188E090E00E940B1E60E08DE05A
:102B400090E00E94F91D0C9464150C946B15FC0127
:102B5000329680910C01882331F08091F40187FF37
:102B600002C09EE101C096E080E0915028F02191E2
:102B70002223D9F38F5FF9CF08959C01FC0132968F
:102B80009FEF80E04191461789F09F3F19F4411172
:102B900001C0982F8F5F8630A9F79F3F39F0F90168
:102BA000E90FF11D97FDFA95628308950895FC01E0
:102BB000329608962081261301C010823196E817BC
:102BC000F907C1F70895262F2695269526952E31CB
:102BD00068F4FC01E20FF11D677021E030E001C0F4
:102BE000220F6A95EAF78281282B22830895262FE7
:102BF0002695269526952E3170F4FC01E20FF11DE5
:102C0000677021E030E001C0220F6A95EAF7209555
:102C1000828128232283089520910C01222329F008
:102C20002091F40127FD0C94E3150C94BD1520911F
:102C30000C01222329F02091F40127FD0C94F715B3
:102C40000C94D71520910C01FC013296222331F00F
:102C50008091F40187FF02C08EE101C086E0DF01B0
:102C60001D928A95E9F7089508950C9434160E94F0
:102C700035168091FA01843049F11092CC0120E49C
:102C800088E190E00FB6F894A895809360000FBE9D
:102C90002093600080E00E9496040E94351683B75E
:102CA000817F846083BF83B7816083BF7894889578
:102CB00083B78E7F83BF0FB6F894A895809160008C
:102CC000886180936000109260000FBE089508959F
:102CD0000895CF930E9467160E94F6080E94681616
:102CE000C0E08C2F0E948E09892B29F4CF5FC4305D
:102CF000C1F780E001C081E0CF91089508950C9460
:102D00007E160E94F50E0E94D4090E9496040C942F
:102D10007F161F920F920FB60F9211248F939F93DD
:102D2000AF93BF938091CC01811113C08091F001CA
:102D30009091F101A091F201B091F3014196A11D92
:102D4000B11D8093F0019093F101A093F201B09333
:102D5000F301BF91AF919F918F910F900FBE0F9094
:102D60001F90189582E084BD93E095BD9AEF97BDC2
:102D700080936E0008952FB7F8948091F0019091A0
:102D8000F101A091F201B091F3012FBF0895CF920C
:102D9000DF92EF92FF920F931F932FB7F894409119
:102DA000F0015091F1016091F2017091F3012FBF98
:102DB0006A017B01EE24FF248C0120E030E0C01684
:102DC000D106E206F30610F4415051099A01281B7E
:102DD000390BC9011F910F91FF90EF90DF90CF90B9
:102DE000089578941F920F920FB60F9211248F932B
:102DF0009F93AF93BF938091F0019091F101A091C7
:102E0000F201B091F3010196A11DB11D8093F00173
:102E10009093F101A093F201B093F301BF91AF91B0
:102E20009F918F910F900FBE0F901F90189581E08A
:102E30008093E00080E28093D8001092C9008FE177
:102E40009EE40197F1F700C0000087E090EBDC0101
:102E50008093030290930402A0930502B0930602AC
:102E60009CE088E10FB6F894A895809360000FBEAF
:102E700090936000FFCF0E943715811102C00E941D
:102E8000A5150E9442158093CB010E944A1590E03F
:102E90009093F5018093F4010E944615682F70E02D
:102EA00080E090E00C94D0128091ED010895089597
:102EB00008950895CF93DF93EC010E942C1982307E
:102EC00011F08430D9F580910C01882339F080917C
:102ED000F40187FF03C060E282E002C068E081E0A5
:102EE0008093E9008FEF9091E800815095FD06C036
:102EF00095ED9A95F1F700008111F5CF8091E800EA
:102F000085FF1CC080910C01811105C040E050E09C
:102F100068E070E003C070E040E050E0CE010E9445
:102F200049198091E8008E778093E80080E2FE01E5
:102F3000ADECB1E001900D928A95E1F7DF91CF9170
:102F400008958091F901811109C00E94DE1A0E9442
:102F50003B1B8091E20084608093E2000895109210
:102F6000F9010895089508950C94811642E061ECEA
:102F700081E00E94581A42E261EC82E00C94581AF7
:102F80008091FC01833009F460C030F4813071F02D
:102F9000823009F499C008958A3009F485C08B30D5
:102FA00009F46BC0893009F0A7C020C08091FB01F3
:102FB000813A09F0A1C08091E800877F8093E80002
:102FC0008091FF0190910002892B21F460E28DEC49
:102FD00091E003C060E080E090E070E00E9494190E
:102FE0008091E8008B778093E80008958091FB0141
:102FF000813209F081C08091FF0190910002029717
:1030000008F07AC08091E800877F8093E800809183
:10301000E80082FD05C08091FA018111F8CF6CC0F3
:103020002091F3008091F20090E0922B029729F416
:103030008091F1008B7F813021F48091F1008093A9
:10304000ED018091E8008B7753C08091FB01813ABC
:1030500009F052C08091FF0190910002892B09F084
:103060004BC08091E800877F8093E8008091E80062
:1030700080FFFCCF80910C0136C08091FB01813232
:10308000D9F58091FF0190910002892BA9F58091DB
:10309000E800877F8093E8000E948D1A8091FD01EF
:1030A00080930C010C94F50E8091FB01813221F587
:1030B0008091E800877F8093E8000E948D1A8091BC
:1030C000FE018093EE0108958091FB01813AA1F405
:1030D0008091E800877F8093E8008091E80080FF7E
:1030E000FCCF8091EE018093F1008091E8008E7713
:1030F0008093E8000C948D1A089584B7877F84BF6D
:103100000FB6F894A8958091600088618093600064
:10311000109260000FBE80E8809361001092610001
:103120000E942E0A0E94DE1A0E943B1B8091E20040
:1031300084608093E20078940E94CA1D0E94340A41
:1031400082E091E00E94CF098091FA01853069F414
:103150000E9437168091F8018823B1F30E94691606
:10316000882391F30E943319EFCF0E943A0AECCFE3
:103170000C94BA18292F332723303105C9F064F491
:103180002130310581F02230310509F04CC08BE34C
:1031900090E02FE837E04BC02132310521F1223297
:1031A000310589F140C082E190E02AEC37E03FC070
:1031B00099278130910571F02CF4892BA1F5EBE86A
:1031C000F7E00DC08230910541F0039761F5EBE522
:1031D000F7E005C0EBE7F7E002C0E1E6F7E0849135
:1031E00090E09F0124C06115710541F061307105C7
:1031F000D1F489E090E02AEB37E019C089E090E053
:1032000021EA37E014C06115710541F061307105A4
:1032100051F48BE390E02CED37E009C080E490E0BE
:1032200027E138E004C080E090E020E030E0FA01DF
:103230003183208308950895CF93C82F0E941B19CE
:10324000C093EF01CF9108958091FA01843011F07D
:1032500081E0089582E008958091EF01811102C01C
:103260000C942419089580E189BD82E189BD09B4D7
:1032700000FEFDCF8091D8008F7D8093D800809193
:10328000E00082608093E0008091E00081FDFCCF4F
:103290000895CF92DF92EF92FF920F931F93CF93F7
:1032A000DF93EC018B016A010E94AC1A811133C0DB
:1032B000C114D10439F0F60180819181081B190BEA
:1032C000C80FD91FE12CF12C0115110519F18091BE
:1032D000E80085FD16C08091E8008E778093E800B5
:1032E000C114D10449F0F60180819181E80EF91EE4
:1032F000F182E08285E00FC00E94AC1A882321F39E
:103300000AC089918093F10001501109FFEFEF1A73
:10331000FF0ADACF80E0DF91CF911F910F91FF90EC
:10332000EF90DF90CF90089520910102309102023A
:103330002617370748F06115710539F42091E80028
:103340002E772093E80001C0B90140E061157105B6
:10335000A9F12091FA01222309F443C0253009F490
:1033600042C02091E80023FD40C02091E80022FDEA
:1033700032C02091E80020FFE9CF4091F300209176
:10338000F20030E0342BFC01CF016115710559F0DA
:103390002830310540F481918093F100615071092A
:1033A0002F5F3F4FF1CF41E02830310509F040E079
:1033B0002091E8002E772093E800C8CF4111C9CFB3
:1033C0000AC08091FA01882361F0853061F0809114
:1033D000E80083FD0AC08091E80082FFF2CF80E020
:1033E000089582E0089583E0089581E00895209192
:1033F0000102309102022617370748F06115710566
:1034000039F42091E8002E772093E80001C0B9013B
:10341000FC0120E06115710591F18091FA0188238A
:1034200009F440C0853009F43FC08091E80083FD75
:103430003DC08091E80082FD2FC08091E80080FFB0
:10344000E9CF2091F3008091F20090E0922B61157A
:10345000710559F08830910540F424912093F100D2
:103460003196615071090196F2CF21E0089709F079
:1034700020E08091E8008E778093E800CBCF211187
:10348000CCCF0AC08091FA01882361F0853061F0C9
:103490008091E80083FD0AC08091E80082FFF2CFAE
:1034A00080E0089582E0089583E0089581E0089522
:1034B000982F973058F59093E900981739F070914C
:1034C000EC002091ED005091F00003C0242F762FE6
:1034D00050E021FF19C03091EB003E7F3093EB00AC
:1034E0003091ED003D7F3093ED003091EB00316085
:1034F0003093EB007093EC002093ED005093F000BC
:103500002091EE0027FF07C09F5FD3CF8F7080937D
:10351000E90081E0089580E008958091FB0187FF34
:1035200011C08091E80082FD05C08091FA018111EF
:10353000F8CF11C08091E8008B770BC08091FA0121
:10354000882349F08091E80080FFF8CF8091E8005F
:103550008E778093E80008952091E4003091E50093
:1035600095E64091EC00842F817040FF22C080914D
:10357000E80080FD1CC08091FA01882391F085301D
:1035800091F08091EB0085FD10C04091E4005091D6
:10359000E5004217530729F39A01915011F784E08F
:1035A000089582E0089583E0089581E0089580E021
:1035B00008954091E80042FFDECF08950E944C1B21
:1035C0000E94541BE0EEF0E0808181608083E8ED92
:1035D000F0E080818F77808319BCA7EDB0E08C91FB
:1035E0008E7F8C9380818F7E80831092F901089565
:1035F0000F931F93CF93DF930E944C1B0E94541B89
:10360000C8EDD0E088818F7788838881806888833F
:1036100088818F7D888319BC1092FA011092F6017F
:103620001092F8011092F70100EE10E0F80180818D
:103630008B7F808388818160888342E060E080E0C6
:103640000E94581AE1EEF0E080818E7F8083E2EEE6
:10365000F0E0808181608083808188608083F801D0
:1036600080818E7F8083888180618883DF91CF9184
:103670001F910F910895E8EDF0E080818F7E8083A7
:10368000E7EDF0E080818160808384E082BF81E0AB
:103690008093F9010C94F81AE8EDF0E080818E7FB8
:1036A00080831092E20008951092DA001092E100F7
:1036B00008951F920F920FB60F9211242F933F93EC
:1036C0004F935F936F937F938F939F93AF93BF932A
:1036D000EF93FF938091E10082FF0BC08091E200A5
:1036E00082FF07C08091E1008B7F8093E1000E9400
:1036F000C91D8091DA0080FF1FC08091D80080FF33
:103700001BC08091DA008E7F8093DA008091D9000F
:1037100080FF0DC080E189BD82E189BD09B400FE52
:10372000FDCF81E08093FA010E94A11705C019BC6A
:103730001092FA010E94AF178091E10080FF19C03A
:103740008091E20080FF15C08091E2008E7F80931F
:10375000E2008091E20080618093E2008091D800D5
:1037600080628093D80019BC85E08093FA010E94A2
:10377000B3178091E10084FF30C08091E20084FFA4
:103780002CC080E189BD82E189BD09B400FEFDCF76
:103790008091D8008F7D8093D8008091E1008F7E4A
:1037A0008093E1008091E2008F7E8093E20080911F
:1037B000E20081608093E2008091F601882311F09D
:1037C00084E007C08091E30087FD02C081E001C072
:1037D00083E08093FA010E94B4178091E10083FF97
:1037E00029C08091E20083FF25C08091E100877F9E
:1037F0008093E10082E08093FA011092F6018091BB
:10380000E1008E7F8093E1008091E2008E7F8093C3
:10381000E2008091E20080618093E20042E060E09B
:1038200080E00E94581A8091F00088608093F00038
:103830000E94B217FF91EF91BF91AF919F918F912D
:103840007F916F915F914F913F912F910F900FBE9C
:103850000F901F9018951F920F920FB60F92112480
:103860002F933F934F935F936F937F938F939F9388
:10387000AF93BF93CF93DF93EF93FF93C091E90092
:10388000CF708091EC00D82FD17080FDD0E81092DD
:10389000E9008091F000877F8093F00078940E9487
:1038A0006F1C1092E9008091F00088608093F00016
:1038B000CD2BCF70C093E900FF91EF91DF91CF91B5
:1038C000BF91AF919F918F917F916F915F914F9138
:1038D0003F912F910F900FBE0F901F9018951F933F
:1038E000CF93DF93CDB7DEB7AA970FB6F894DEBFBC
:1038F0000FBECDBFEBEFF1E088E08E0F9091F100AD
:1039000091938E13FBCF0E94C0178091E80083FF34
:1039100028C18091FB019091FC01492F50E04A3071
:10392000510508F01EC1FA01E556FF4F0C94E51D44
:10393000803821F0823809F014C108C08091F70165
:103940009091F801992389F082600FC08091FF0166
:103950008F70873008F005C18093E9008091EB00FB
:1039600085FB882780F91092E9009091E800977F05
:103970009093E8008093F1001092F100D0C0282FBE
:103980002D7F09F0EEC0882319F0823061F0E9C084
:103990008091FD01813009F0E4C0933009F080E0AE
:1039A0008093F8012EC08091FD0181112AC0809181
:1039B000FF018F702FEF280F263008F0D2C08093C0
:1039C000E9002091EB0020FF1CC0933021F480918E
:1039D000EB00806214C09091EB0090619093EB003B
:1039E00021E030E0A90102C0440F551F8A95E2F79B
:1039F0004093EA001092EA008091EB008860809387
:103A0000EB001092E9008091E800877F8093E80046
:103A10000E948D1AA6C08111A4C01091FD011F77CC
:103A20008091E3008078812B8093E3008091E8000F
:103A3000877F8093E8000E948D1A8091E80080FFC4
:103A4000FCCF8091E30080688093E300111102C0F5
:103A500082E001C083E08093FA0183C08058823005
:103A600008F07FC08091FD019091FE018C3D53E0F4
:103A7000950779F583E08A838AE289834FB7F894C2
:103A8000DE01139620E03EE051E2E32FF0E0509398
:103A90005700E49120FF03C0E295EF703F5FEF70A5
:103AA0008E2F90E0EA3010F0C79601C0C0968D933B
:103AB0009D932F5F243149F74FBF8091E800877FA6
:103AC0008093E8006AE270E0CE0101960E949419AA
:103AD00015C06091FF0170910002AE014F5F5F4F12
:103AE0000E94B818BC01892BE1F19091E800977F02
:103AF0009093E80089819A810E94F7198091E800EB
:103B00008B778093E8002DC0803859F58091E800CC
:103B1000877F8093E8008091F6018093F100809187
:103B2000E8008E7773CF81111CC09091FD01923017
:103B3000C0F48091E800877F8093E8009093F601BD
:103B40000E948D1A8091F601811106C08091E300D8
:103B500087FD02C081E001C084E08093FA010E94E9
:103B6000B6178091E80083FF0AC08091E800877F44
:103B70008093E8008091EB0080628093EB00AA962E
:103B80000FB6F894DEBF0FBECDBFDF91CF911F916E
:103B900008950895CF938091FA018823A1F0C091F0
:103BA000E900CF709091EC00892F817090FD80E842
:103BB000C82B1092E9008091E80083FD0E946F1CE1
:103BC000CF70C093E900CF910895EE0FFF1F0590CD
:103BD000F491E02D0994F999FECF92BD81BDF89A38
:103BE000992780B50895A8E1B0E042E050E00C9438
:103BF0001F1E262FF999FECF92BD81BDF89A01971D
:103C000000B4021639F01FBA20BD0FB6F894FA9A24
:103C1000F99A0FBE08950396272F0E94FA1D0E945D
:103C2000F91D252F0E94FA1D242F0C94FA1D0196D0
:103C3000272F0E94FA1D0C94F91DDC01CB01FC0119
:103C4000F999FECF06C0F2BDE1BDF89A319600B4F5
:0E3C50000D9241505040B8F70895F894FFCF00
:103C5E00A80154175A1757175817591701343536E4
:0E3C6E0037606162636465666730313233002F
:00000001FF
