:100000000C94D4040C941B050C941B050C941B0538
:100010000C941B050C941B050C941B050C941B05E0
:100020000C941B050C941B050C94D6230C94A8244B
:100030000C94041F0C941B050C941B050C941B05BD
:100040000C941B050C941B050C941B050C941B05B0
:100050000C941B050C946C1F0C941B050C941B0535
:100060000C941B050C941B050C941B050C941B0590
:100070000C941B050C941B050C941B050C941B0580
:100080000C941B050C941B050C941B050C941B0570
:100090000C941B050C941B050C941B050C941B0560
:1000A0000C941B050C941B050C941B05FF06010703
:1000B0000C0703070507070709070B070E071007BB
:1000C00012071D071407160718071A071C071F0732
:1000D0005F155F1591159115FD16FD16FD16FD16A0
:1000E000D115FD167E167E16ED16FD16FD16F616BA
:1000F0008B168B168B168B168B168B168B168B16F8
:100100008B168B168B168B168B168B168B168B16E7
:100110009A16A816AF16B616C01680178017921733
:1001200092178917921792179217801780178E17B8
:10013000921792178E1715253C252E263C252E2624
:100140008825AB252E260126102607634236B79B4D
:10015000D8A71A39685618AEBAAB558C1D3CB7CC27
:100160005763BD6DEDFD753EF6177231BF0000009F
:10017000803F05A84CCDB2D44EB93836A9020C50F8
:10018000B9918688083CA6AAAA2ABE000000803F32
:10019000290014001A000800150017001C001800A0
:1001A0000C00120013002A002B00000004001600AF
:1001B000070009000A000B000D000E000F002800C8
:1001C000E10037001D001B000600190005001100AA
:1001D000100036005200E500E000E300E2000251AA
:1001E00000002C002C0000000151500051004F0075
:1001F00035001E001F0020002100220023002400E3
:100200002500260027004C00390000002D002E009C
:100210002F003000310038003300340001000100AD
:1002200001003600370001000100010046004700D0
:10023000480049004A004B00010001000100010094
:10024000000001000100000001004C004D004E00C4
:100250003A003B003C003D003E003F0040004100B2
:100260004200430044004500C25C0000CD5CCE5C0F
:10027000CF5CD05CD15CD25CD35CD45CD55C01003B
:10028000C35CC55CC65CC75CC85CC95CCA5C010079
:100290000100010001000100005C010001000100FB
:1002A0000000010001000000010001000100010048
:1002B0000100010001000100010001000100010036
:1002C0000100010001000100010000000100010027
:1002D0000100010001000100010001000100010016
:1002E0000100010001000100010001000100010006
:1002F00001000100010001000100010001000100F6
:1003000000000100010000000100010001000100E7
:1003100001000100010001000100010001000100D5
:1003200001000100010001000100000001000100C6
:1003300001000100010001000100010001000100B5
:1003400001000100010001000100010001000100A5
:100350000100010001000100010001000100010095
:100360000000010001000000010001000100010087
:100370000100010001000100010001000100010075
:100380000100010001000100010000000100010066
:100390000100010001000100010001000100010055
:1003A0000100010001000100010001000100010045
:1003B0000100010001000100010001000100010035
:1003C0000000010001000000010001000100010027
:1003D0000100010001000100010001000100010015
:1003E0000100010001000100010000000100010006
:1003F00001000100010001000100010001000100F5
:1004000001000100010001000100010001000100E4
:1004100001000100010001000100010001000100D4
:1004200000000100010000000100010001000100C6
:1004300001000100010001000100010001000100B4
:1004400001000100010001000100000001000100A5
:100450000100010001000100010001000100010094
:100460000100010001000100010001000100010084
:100470000100010001000100010001000100010074
:100480000000010001000000010001000100010066
:100490000100010001000100010001000100010054
:1004A0000100010001000100010000000100010045
:1004B0000100010001000100010001000100010034
:1004C0000100010001000100010001000100010024
:1004D0000100010001000100010001000100010014
:1004E0000000010001000000010001000100010006
:1004F00001000100010001000100010001000100F4
:1005000001000100010001000100000001000100E4
:1005100001000100010001000100010001000100D3
:1005200001000100010001000100010001000100C3
:1005300001000100010001000100010001000100B3
:1005400000000100010000000100010001000100A5
:100550000100010001000100010001000100010093
:100560000100010001000100010000000100010084
:100570000100010001000100010001000100010073
:100580000100010001000100010001000100010063
:100590000100010001000100010001000100010053
:1005A0000000010001000000010001000100010045
:1005B0000100010001000100010001000100010033
:1005C0000100010001000100010000000100010024
:1005D0000100010001000100010001000100010013
:1005E0000100010001000100010001000100010003
:1005F00001000100010001000100010001000100F3
:1006000000000100010000000100010001000100E4
:1006100001000100010001000100010001000100D2
:1006200001000100010001000100000001000100C3
:1006300001000100010001000100010001000100B2
:1006400001000100010001000100010001000100A2
:100650000100010001000100010001000100010092
:100660000000010001000000010001000100010084
:100670000100010001000100010001000100010072
:100680000100010001000100010000000100010063
:100690000100010001000100010001000100010052
:1006A0000100010001000100010001000100010042
:1006B0000100010001000100010001000100010032
:1006C0000000010001000000010001000100010024
:1006D0000100010001000100010001000100010012
:1006E0000100010001000100010000000100010003
:1006F00001000100010001000100010001000100F2
:1007000001000100010001000100010001000100E1
:1007100001000100010001000100010001000100D1
:1007200000000100010000000100010001000100C3
:1007300001000100010001000100010001000100B1
:1007400001000100010001000100000001000100A2
:100750000100010001000100010001000100010091
:100760000100010001000100010001000100010081
:100770000100010001000100010001000100010071
:100780000000010001000000010001000100010063
:1007900000047F3F1F643214643214783C1E1E1420
:1007A0000A056801F000B40078005A00000000005B
:1007B0000001010101010101010102020202020224
:1007C00002020203030303030303030404040404F7
:1007D00004050505050506060606060707070708BA
:1007E0000808080909090A0A0A0A0B0B0B0C0C0C69
:1007F0000D0D0D0E0E0F0F0F1010111111121213FF
:10080000131414151516161717181819191A1A1B78
:100810001C1C1D1D1E1F1F202021222223242525D4
:1008200026272728292A2B2B2C2D2E2F2F3031320B
:1008300033343536363738393A3B3C3D3E3F40411C
:10084000424344464748494A4B4C4D4F50515253FE
:10085000555657585A5B5C5E5F60626364666769B1
:100860006A6C6D6E707173747678797B7C7E808132
:10087000838486888A8B8D8F91929496989A9B9D7B
:100880009FA1A3A5A7A9ABADAFB1B3B5B7B9BBBD88
:10089000BFC1C4C6C8CACCCFD1D3D6D8DADCDFE159
:1008A000E4E6E8EBEDF0F2F5F7FAFCFF04033000C4
:1008B000000018033400350052005300740061003A
:1008C0006E00640061007200640000000E036400AA
:1008D0007A007400650063006800000004030904E6
:1008E00009023B00020100A0FA0904000001030113
:1008F00001000921110100012240000705810308C0
:10090000000A09040100010300000009211101008F
:1009100001223B000705820320000A12011001009A
:10092000000008EDFE6060010001020301050109FD
:1009300006A1018505050719E029E71500250195A0
:1009400008750181020508190129059505750191B0
:10095000029501750391010507190029EF1500257E
:100960000195F075018102C005010906A101050785
:1009700019E029E715002501950875018102950107
:100980007508810105081901290595057501910270
:100990009501750391010507190029FF150026FF30
:1009A00000950675088100C011241FBECFEFDAE064
:1009B000DEBFCDBF04B603FE27C080914A029091EE
:1009C0004B02A0914C02B0914D028730904BA74052
:1009D000B04BD1F410924A0210924B0210924C028A
:1009E00010924D0214BE84B7877F84BF0FB6F8946F
:1009F000A8958091600088618093600010926000EB
:100A00000FBEE0E0F8E3099511E0A0E0B1E0E0E618
:100A1000F4E502C005900D92AA32B107D9F722E0A1
:100A2000AAE2B1E001C01D92AA34B207E1F70E9428
:100A3000F8200C942E2A0C94000080E090E0089599
:100A40000895089581FF02C0249A01C024982C982B
:100A5000089581E0089581E008950C942B050E948B
:100A6000B21D811102C00E94201E0C943A0A0C94FF
:100A70003C0A0C9422050C94390508950E947017C5
:100A80000E943D052FEF84E39CE021508040904080
:100A9000E1F700C000000C94921FFF920F931F9388
:100AA000CF93DF938C01FC01C081D18180917101D2
:100AB000811113C08281882349F0CE010E94A51CB8
:100AC000F82E682FCE010E944A1C04C0CE010E945D
:100AD000791CF82EBE018F2D04C0CE010E94A51CEA
:100AE000BE010E94CC07EC01B8010E942D058823AD
:100AF00009F44AC2CC3CFCE5DF0709F4DFC0E8F5A5
:100B0000C43C9CE5D90709F4A3C0F8F4C531FCE561
:100B1000DF0778F4C2308CE5D80708F04EC1C11564
:100B20009CE5D90709F465C0C130DC4509F469C00A
:100B30001EC2C23CFCE5DF0709F476C008F07CC0A9
:100B4000C631DC4509F4ECC112C2F8018281C83C0F
:100B5000FCE5DF0709F49AC040F4C63CECE5DE078B
:100B600009F488C008F480C08BC0CA3C9CE5D90752
:100B700009F498C008F490C09BC0C43DFCE5DF07B1
:100B800009F4F6C0C0F4F8018281C03DFCE5DF073E
:100B900009F4BDC040F4CE3CECE5DE0709F49BC08F
:100BA00008F494C0A6C0C23D9CE5D90709F4CDC0A5
:100BB00008F4BDC0D8C0C83DFCE5DF0709F495C105
:100BC00050F4F8018281C63DFCE5DF0709F447C116
:100BD00008F4DEC065C1CC3DECE5DE0709F4E4C0F5
:100BE000CD3DFCE5DF07C1F0CB3DDC4509F0BFC1E1
:100BF000D4C0F8018281882309F4C6C10E943E0551
:100C0000C3C1F8018281882309F4BEC18091F50136
:100C100081608093F501B8C1F8018281882309F4CD
:100C2000B3C10E94201EB0C1F8018281882309F45B
:100C3000ABC10E94D90EA8C1F8018281882309F4B2
:100C4000A3C10E94761D827261F00E947E0E9CC13B
:100C5000F8018281882309F497C10E94761D82726F
:100C6000A1F30E94700E90C1882309F48DC10E94E7
:100C7000730D8AC1882309F487C10E94970D84C12E
:100C8000882309F481C10E94B70D7EC1882309F42D
:100C90007BC10E94D70D78C1882309F475C10E94D9
:100CA000F70D72C1882309F46FC10E94170E6CC141
:100CB000882309F469C10E942D0C66C1F801828164
:100CC000882309F461C10E94420C5EC1882309F4A3
:100CD0005BC181E029C0882309F456C10E94240C1D
:100CE000823028F00E94240C853008F4BACF82E0CC
:100CF0001BC0882309F448C10E94240C863028F0C8
:100D00000E94240C883008F4ACCF86E00DC0882304
:100D100009F43AC10E94240C893028F00E94240C66
:100D20008E3008F49ECF89E00E94810E2DC1882369
:100D300009F42AC10E94240C8F3028F00E94240C50
:100D4000843108F48ECF8FE0EFCF882309F41CC1E3
:100D50000E94240C853128F00E94240C873108F46D
:100D600080CF85E1E1CF882309F40EC188E1DCCF93
:100D7000F8018281882309F407C10E94240C89317B
:100D800028F00E94240C823208F46BCF89E1CCCF8A
:100D9000882309F4F9C083E2C7CFF8018281882350
:100DA00009F4F2C080E006C0F8018281882309F4CA
:100DB000EBC082E00E949921E7C0F801828188237C
:100DC00009F4DAC00E94B21D811102C00E94201EE7
:100DD0000E94C51D90E090933C0280933B02FE016F
:100DE000E350FC45E231F10530F4EA5AFF4F8091BF
:100DF0003B020C94D32980913B02816027C0826022
:100E000025C0846023C0806121C080621FC08064CF
:100E10001DC080681BC08460886018C08E7F16C0AB
:100E20008D7F14C08B7F12C08F7E10C08F7D0EC04F
:100E30008F7B0CC08F770AC08B7F877F07C087FBB3
:100E4000222720F991E0922790FB87F980933B02BB
:100E500080913B020E94C91D0E94701795C0882393
:100E600051F010922F010E94361F90932C01809315
:100E70002B0182E020C080912F0181110FC0809151
:100E80002B0190912C010E94421F883C910530F467
:100E900086E20E94A51386E20E94BC1482E022C072
:100EA000882361F0109230010E94361F90932E012A
:100EB00080932D0180E20E941B1566C08091300155
:100EC00081110FC080912D0190912E010E94421F2F
:100ED000883C910530F487E20E94A51387E20E94C6
:100EE000BC1480E20E9422154FC0F801828181115A
:100EF000D9CF809130018111F4CF80912D01909153
:100F00002E010E94421F883C910558F780E20E9402
:100F1000221588E20E94A51388E20E94BC1434C006
:100F20000E94761D282FF801828140910D01509179
:100F30000E01882379F02A7A91E009F490E09093E9
:100F40002A01911102C069E201C065E3CA010E9451
:100F5000871E0AC080912A01811102C069E201C086
:100F600065E3CA010E94921E0E94431D0DC081E0EC
:100F700080932F0180933001C801DF91CF911F91A1
:100F80000F91FF900C94290580E0DF91CF911F9184
:100F90000F91FF90089508959CE0799FF00111242E
:100FA00090E3899FE00DF11D1124E60FF11DEE0F76
:100FB000FF1FE057FE4F859194910895880F991F68
:100FC000FC01E057F84F859194910895CF93DF93FA
:100FD0000E94CC070E949A09EC01811520E5920736
:100FE000F0F5811530E4930708F023C1883E9105A0
:100FF00000F5803E910508F099C1883A910570F49A
:10100000853A910508F09EC08130910509F48EC1A2
:1010100008F43FC1049708F089C13BC18F3B91059B
:1010200008F49BC0803C910508F433C1805C9109B1
:10103000F3C08115904258F4C11581E0D80708F03B
:1010400075C1C03FD10508F424C1D0656FC1C11579
:1010500090E3D90708F0E3C0CE019F70DDC0811591
:1010600025E5920708F043C0811534E5930708F0A1
:10107000F7C0811542E5940708F5C11581E5D80749
:1010800008F0DAC08C2F837021E030E002C0220F1C
:10109000331F8A95E2F73C68CE0154E09695879518
:1010A0005A95E1F78370382BCF70C695C69540E20C
:1010B000C49FE0011124C22BD32B38C1282F2695C1
:1010C000269583709927C115D34508F0BAC040E230
:1010D000249F90011124C1E0D0E002C0CC0FDD1F9D
:1010E0008A95E2F72C2B3D2BE901DC681FC18115A5
:1010F00049E59407A0F4C11588E5D80708F0B5C004
:10110000C11596E5D90708F0C4C08C2F0E94170AB4
:101110008F71C82FD0E0DC2FCC27D06207C181159A
:101120002AE5920708F4A6C090568115904208F06F
:10113000B0C08D2F8F710E94170ADD27D0628F718A
:10114000D82BF4C0853A910509F4A6C0863A9105DA
:1011500009F0A5C0C2E8D0E4E9C0883A910509F4D5
:10116000A1C0893A910509F4A0C08A3A910509F411
:101170009FC08B3A910509F49EC08C3A910509F401
:101180009DC08B3B910509F49CC08C3B910509F4F3
:101190009BC08D3A910509F49AC0803B910509F4F2
:1011A00099C08E3A910509F498C08F3A910509F4D7
:1011B00097C0813B910509F496C0823B910509F4E3
:1011C00095C0833B910509F494C0843B910509F4D3
:1011D00093C0853B910509F492C0863B910509F4C3
:1011E00091C0873B910509F490C0883B910509F4B3
:1011F0008FC0893B910509F48EC08D3B910509F4A0
:101200008DC08E3B910509F48CC08A3B910509F491
:101210008BC0C0E0D4E48AC00E94DE0738C0CE0193
:101220009927D3FF03C0EC01D86C80C0EC01D06CCF
:101230007DC0DF70D06A7AC0DC2FCC27C16FD06A46
:1012400075C040E2249F90011124C1E0D0E002C0AB
:10125000CC0FDD1F8A95E2F7C22BD32BDA6866C06C
:10126000D82FCC27C46FD06A61C0DC2FCC27C06FC9
:10127000D06A5CC0282F2F70206E30E0306A84E086
:10128000D695C7958A95E1F7CF70C9019C2BEC01E3
:101290004DC0C0E0D0E04AC0C1E8D0E447C0C3E8D8
:1012A000D0E444C0C2EED4E441C0C9EED4E43EC0B0
:1012B000CAEED4E43BC0C5EBD4E438C0C6EBD4E4FA
:1012C00035C0C3EBD4E432C0C4EBD4E42FC0C7EBC9
:1012D000D4E42CC0CCECD4E429C0CDECD4E426C0BA
:1012E000C3E8D5E423C0CAE8D5E420C0C2E9D5E408
:1012F0001DC0C4E9D5E41AC0C1E2D6E417C0C3E2F8
:10130000D6E414C0C4E2D6E411C0C5E2D6E40EC0EF
:10131000C6E2D6E40BC0C7E2D6E408C0CFE6D4E408
:1013200005C0C0E7D4E402C0CAE2D6E4CE01DF9132
:10133000CF9108958238910549F1B0F48133910538
:1013400009F458C048F48932910509F44EC08A3234
:10135000910509F454C008958533910509F440C0FE
:101360008933910599F00895833E910529F138F468
:10137000803E910591F0823E9105A1F00895863E50
:101380009105F9F0873E910531F1089520913B02D6
:1013900020FD3AC021FD38C0089580913B0280FDB8
:1013A00035C032C080913B0282FF32C080913B0247
:1013B00084FD30C083EE39C080913B0282FD28C09D
:1013C000F5CF80913B0283FF27C080913B0284FDD3
:1013D00021C087EE2AC080913B0283FD1DC0F5CF5E
:1013E00080913B0285FD1AC01BC080913B0285FDA8
:1013F00017C014C080913B0286FD14C015C08091B7
:101400003B0286FD11C00EC080EE0FC089E30DC007
:1014100082EE0BC080E009C086EE07C089E205C0FD
:1014200085E303C08AE201C081E390E008959091D2
:101430003B0292FF0DC0282F2871283019F4877FB6
:10144000846006C0282F2471243011F48B7F8860BB
:1014500093FF0DC0282F2871283119F4877E8461ED
:1014600006C0282F2471243111F48B7E886194FDED
:10147000877E08950C9420050C942105E6E2F1E0A6
:1014800041E050E024E02E0F9191A92FA295AF707A
:10149000B0E091963C9191979F70BA0102C0660F9F
:1014A000771F9A95E2F7CB018095832391968C93D1
:1014B0002E13EACFAAE1B1E041E050E02CE02A0F80
:1014C0008D91E82FE295EF70F0E031A18F70BA01B5
:1014D00002C0660F771F8A95E2F7CB01962F909591
:1014E000932391A392A1892B82A32A13E9CF10926F
:1014F0003A0110923901109232011092310110928A
:101500003C0110923B011092340110923301109271
:101510003E0110923D011092360110923501109259
:10152000400110923F01109238011092370184E07F
:101530000E943E0B0C942F054F925F927F928F92E8
:101540009F92AF92BF92CF92DF92EF92FF920F9352
:101550001F93CF93DF9326E2422E21E0522EA9E380
:10156000B1E020E001E010E05D018D909C901197CA
:1015700011961C921E92E20189912E01E82FE295AC
:10158000EF70F0E031A18F70A80102C0440F551F29
:101590008A95E2F7CA01342B31A342A1382F309546
:1015A000432342A350EA5A95F1F79AE1C92E91E0FC
:1015B000D92E40E050E0E60179906E01672D6295EA
:1015C0006F7070E0EB01E8A06D917C911197F12CA8
:1015D000D72DDF7002C0F594E794DA95E2F7E0FCCE
:1015E00008C07801042E02C0EE0CFF1C0A94E2F73A
:1015F00002C0E12CF12C6E297F2911967C936E9309
:101600004F5F5F4F4C305105B1F691A1392331A3A3
:1016100092A1892B82A3129681E0F501408151812C
:101620008416950609F480E0282BF1E0A134BF0769
:1016300009F09ACF44E061E371E089E391E00E9410
:101640003F0B0E94370581E0DF91CF911F910F91F1
:10165000FF90EF90DF90CF90BF90AF909F908F90D2
:101660007F905F904F900895E82FF0E0EE0FFF1FFE
:10167000EF5CFE4F80819181089508950895FF9257
:101680000F931F93CF93DF93F82E092F162FD72F89
:10169000C42F222349F081E0809343010E94361F2A
:1016A0009093420180934101809143018823B9F0D6
:1016B00080914101909142010E94421F069778F06B
:1016C000EF2DF02FA12FBD2F80E08C1731F021914D
:1016D00031912D933D938F5FF8CF10924301DF91AD
:1016E000CF911F910F91FF900895CF92DF92EF92CB
:1016F000FF920F931F93CF93DF93E901453608F0D4
:1017000044E6662309F44EC0242F30E0EFEFF0E00A
:10171000E61BF109B901E69F8001E79F100DF69FD6
:10172000100D1124012F110F110B202F7B01E01A36
:10173000F10A3CE3C32ED12CB6010E94AB29FB0178
:10174000BC01E69EC001E79E900DF69E900D11240F
:10175000B6010E94AB29E230F105B1F040F43097B8
:1017600079F0319711F5802F242F461B21C0E430EA
:10177000F105A1F068F03597C1F4842F861B18C0DD
:10178000802F262F200F14C0862F800FE42F03C038
:10179000E42FE61B842F402F2E2F0AC0842F462FC4
:1017A000400F06C0842F242F03C080E020E040E0DB
:1017B000E42FF0E0E455F84F4491E22FF0E0E455D7
:1017C000F84F9491E82FF0E0E455F84FE491498305
:1017D0009883EA83DF91CF911F910F91FF90EF9053
:1017E000DF90CF90089588E090E00C94EE29CF929E
:1017F000DF92EF92FF926B017C010E94F30B6C155C
:101800007D058E059F0551F0B701A60188E090E0A7
:10181000FF90EF90DF90CF900C940C2AFF90EF9008
:10182000DF90CF900895EAE1F2E083E080831092A8
:101830001B028FEF828384E683831482608171812F
:10184000828193810C94F70B80911A0280FF03C070
:1018500086958F73089580E0089580911E0290E030
:1018600001968430910514F083E090E080931E028D
:1018700060911A0270911B0280911C0290911D02CE
:101880000C94F70B80911E0290E0019797FF02C025
:1018900080E090E08430910514F083E090E0809344
:1018A0001E0260911A0270911B0280911C0290919D
:1018B0001D020C94F70B80911A0280FF06C068E0AD
:1018C00070E08FE192E00C94451280E090E0FC0122
:1018D000E15EFD4F118210821282039688319105DC
:1018E000B1F7EDCF90911A0290FF0FC020E030E0E9
:1018F000F901E15EFD4F8183608342832D5F3F4F9D
:1019000028313105A9F70C945B0C0895CF93DF9330
:1019100000D01F92CDB7DEB720911A0220FF0AC077
:101920009E012F5F3F4F0E94750B4B8169818A8119
:101930000E94720C0F900F900F90DF91CF9108953D
:101940005F926F927F928F929F92AF92BF92CF924F
:10195000DF92EF92FF920F931F93CF93DF9300D00C
:101960001F92CDB7DEB78C01E62EF42E522E809159
:101970001A0280FF8BC0982F9E77923061F49E01EF
:101980002F5F3F4FC8010E94750B4B8169818A818F
:101990000E94720C5BC0E82FE695EF739EE39E0FEA
:1019A0009F73943018F4F0901D0250C09AE39E0F7C
:1019B0009F73993068F4881F8827881F90911B02B5
:1019C000292F220F022F082B97FB112710F93EC059
:1019D00087E28E0F8F738A30C8F5F0E07997E0FDCB
:1019E00002C021E001C02FEFEE7FEE55F84F859148
:1019F0009491AC0183E0569547958A95E1F72403CD
:101A00004001259F900C1124580188E9A81A8EEFF7
:101A1000B80A9FE1C92E92E0D92E28E6622E7724DB
:101A20007394C501B3010E94AB2996014F2D6E2D11
:101A30000E94750BA80CB91C83E0C80ED11C87E36B
:101A4000C81682E0D80669F70E945B0C80911A02E2
:101A500000FB87F980931A02902F969580911B02C4
:101A60008078892B10FB87F980931B02E0921C027F
:101A7000F0921D02552051F060911A0270911B02E4
:101A800080911C0290911D020E94F70B0F900F9005
:101A90000F90DF91CF911F910F91FF90EF90DF900A
:101AA000CF90BF90AF909F908F907F906F905F90FE
:101AB0000895282FEAE1F2E09081991F9927991F54
:101AC00030911B02832F880F482F492B37FB552756
:101AD00050F9CA01089668E671E00E94BF29438167
:101AE00062810C94A00C81E00C94590D282F9091E8
:101AF0001A02991F9927991F30911B02832F880F73
:101B0000482F492B37FB552750F9CA01483051055A
:101B10001CF4805A9E4F01C0089768E671E00E944D
:101B2000BF2940911D0260911C020C94A00C81E021
:101B30000C94760D60911C02262F30E0283F310571
:101B400014F4685F01C06FEF30911A02331F33271E
:101B5000331F90911B02592F550F97FB992790F92E
:101B6000282F40911D02852F832B0C94A00C81E01F
:101B70000C949A0D60911C02262F30E0283031051C
:101B800014F0685001C060E030911A02331F33270F
:101B9000331F90911B02592F550F97FB992790F9EE
:101BA000282F40911D02852F832B0C94A00C81E0DF
:101BB0000C94BA0D40911D02242F30E02D353105D3
:101BC00014F4485F01C044E630911A02331F3327F2
:101BD000331F90911B02592F550F97FB992790F9AE
:101BE000282F60911C02852F832B0C94A00C81E080
:101BF0000C94DA0D40911D02242F30E0283031057D
:101C000014F0485001C040E030911A02331F3327CE
:101C1000331F90911B02592F550F97FB992790F96D
:101C2000282F60911C02852F832B0C94A00C81E03F
:101C30000C94FA0D20E00C94A00CCF9390911A0212
:101C400090FF40C09178811102C0926007C0853238
:101C500010F0986403C08F73880F982B90931A022A
:101C6000662351F060911A0270911B0280911C0250
:101C700090911D020E94F70BC0911A026C2F66957D
:101C80006F7370E04BE050E082E091E00E94D92950
:101C9000892B19F01092610103C081E080936101EA
:101CA000CC1FCC27CC1F90911B02892F880F97FB4C
:101CB000992790F940911D0260911C028C2BCF91C5
:101CC0000C941A0ECF910895682F90911A02969550
:101CD0009F7381E0890F853208F081E00C941D0E1E
:101CE00081E00C94640E682F90911A0296959F7370
:101CF0008FEF890F09F484E20C941D0E81E00C949F
:101D0000730E61E00C941D0EEAE1F2E080818160C7
:101D1000808386958F730C94810E60E00C941D0E69
:101D20008091F50181608093F5010E94B21D8111BF
:101D300004C00E94201E0E94130C0E94F30B6093AB
:101D40001A0270931B0280931C0290931D026E77FF
:101D500061F40E94130C0E94F30B60931A027093BB
:101D60001B0280931C0290931D0281E0809361010D
:101D700080911A0280FF04C086958F730C948D0E9B
:101D80000895EAE1F2E080818E7F80836081718135
:101D9000828193810E94F70B109261012FEF80E7FF
:101DA00092E0215080409040E1F700C000000C9488
:101DB0005B0C80911A0280FD0C94C10E0C94840E71
:101DC000CF93C82F80915F01909160010E94421FC4
:101DD000EC2FF0E0E256F84FE491F0E08E179F0709
:101DE00008F443C00E94361F9093600180935F0106
:101DF00060915E0170E080E090E00E94AC2720E0FE
:101E000030E04FE753E40E94CF262BED3FE049E45A
:101E100050E40E94D5280E9442290E9449272BE4C1
:101E20003AE34EE25FE30E94622620EF3BEF48ED8B
:101E300052E40E94D5280E947B27462F80911A02E7
:101E4000881F8827881F90911B02292F220F97FB3C
:101E5000992790F960911C02822B0E94860C809138
:101E60005E0190E0019680935E01CF910895CF933B
:101E7000C82F80915C0190915D010E94421FEC2F60
:101E8000F0E0E556F84FE491F0E08E179F07E8F098
:101E90000E94361F90935D0180935C0140911D026A
:101EA00060911C0280915A0190915B010E94860C06
:101EB00080915A0190915B01019668E671E00E9461
:101EC000AB2990935B0180935A01CF910895CF92F3
:101ED000DF92FF920F931F93CF93DF93F82E8091A1
:101EE0005801909159010E94421FEF2DE695F0E0B4
:101EF000E856F84FE491F0E08E179F07E8F10E9452
:101F0000361F90935901809358010FE112E0C0E011
:101F1000D0E088E6C82EDD24D394809156019091BC
:101F200057018C0F9D1FB6010E94AB29980140916B
:101F30001D0260911C020E94750BAD960D5F1F4F34
:101F4000C83681E0D80749F70E945B0C2091560102
:101F500030915701F0FE0AC0C9010196BE010E94EE
:101F6000AB29909357018093560106C02150310947
:101F70003093570120935601DF91CF911F910F911C
:101F8000FF90DF90CF900895AF92BF92CF92DF92F3
:101F9000EF92FF920F931F93CF93DF93C82F80FF91
:101FA00002C01FEF01C011E08091540190915501D2
:101FB0000E94421FC695EC2FF0E0EB56F84FE491DB
:101FC000F0E08E179F0708F465C00E94361F9093BB
:101FD0005501809354012FE1C22E22E0D22E31E22E
:101FE000E32E32E0F32EC0E0D0E0F701319710820B
:101FF000F6011082F701108294E0A92EB12C00E0C6
:1020000080915301800F87FD885F082E000C990B8B
:10201000C817D907E9F480911D028A9DA0018B9D04
:10202000500D1124559547955595479580911A0265
:10203000881F8827881F90911B02592F550F97FBE7
:10204000992790F9960160911C02852B0E94750BCF
:10205000010FF1E0AF1AB10899F6219683E0C80E9E
:10206000D11CE3E0EE0EF11CC830D10509F0BDCF64
:102070000E945B0C80915301113031F4811102C038
:1020800087E006C0815004C090E0019687709927D0
:1020900080935301DF91CF911F910F91FF90EF90AB
:1020A000DF90CF90BF90AF900895EF92FF920F9383
:1020B0001F93CF93DF93C82F8091510190915201CC
:1020C0000E94421FEC2FF0E0EE56F84FE491F0E052
:1020D0008E179F0708F464C00E94361F9093520128
:1020E0008093510180E090E0FC01E15EFD4F1182A0
:1020F00010821282039688319105B1F78FE1E82EA4
:1021000082E0F82E01E212E0C0E0D0E080915001C0
:10211000082E000C990BC817D907ECF0809101012B
:10212000082E000C990B8C179D07ACF080911A02B9
:10213000881F8827881F90911B02592F550F97FBE6
:10214000992790F9970140911D0260911C02852BFF
:102150000E94750B07C0F80131971082F7011082B9
:10216000F80110822196F3E0EF0EF11C0D5F1F4F76
:10217000C830D10559F60E945B0C80910001909106
:102180005001980F9093500120910101280F209346
:102190000101121614F497301CF081958093000110
:1021A000DF91CF911F910F91FF90EF900895EF92E3
:1021B000FF920F931F93CF93DF9380914E019091E5
:1021C0004F010E94421F883E9340D0F10E94361F6B
:1021D00090934F0180934E01C0914C01D0914D01DD
:1021E0002196C170DD27D0934D01C0934C018FE142
:1021F000E82E82E0F82E10E008E7812F8695FE0198
:10220000E80FF11DCF0181709927970140911D02C0
:1022100060911C02FC010E9FC0010F9F900D1124C4
:102220000E94750B1F5FF3E0EF0EF11C183029F7C9
:10223000DF91CF911F910F91FF90EF900C945B0C69
:10224000DF91CF911F910F91FF90EF900895CF9361
:10225000DF9300D01F92CDB7DEB780914A019091F5
:102260004B010E94421FE0E9F7E02591349182176B
:102270009307C0F18091490181110CC09E012F5F2D
:102280003F4F44E66FEF80E090E00E94750B8A813B
:10229000809349010E94361F90934B0180934A011D
:1022A00080914801813051F028F0823061F44091F2
:1022B00049010AC08091490140E007C0609149018D
:1022C00040E080E003C040E080E060E00E94720CEB
:1022D0008091480190E0019663E070E00E94BF2980
:1022E000809348010F900F900F90DF91CF91089548
:1022F0000F931F93CF93DF938091460190914701F5
:102300000E94421F843F914008F448C00E94361F3B
:102310009093470180934601CFE1D2E000E010E0C6
:10232000209144013091450180911A0290911B0245
:10233000043011051CF4232B79F002C0232B61F427
:10234000881F8827881F592F550F97FB992790F9C9
:102350009E0140911D020AC0881F8827881F592F9F
:10236000550F97FB992790F99E0140E060911C0260
:10237000852B0E94750B0F5F1F4F239608301105A8
:1023800079F60E945B0C8091440190914501019681
:10239000817099279093450180934401DF91CF91FB
:1023A0001F910F910895809161018823D9F1909137
:1023B0001A02892F86958F732EE3280F2F732430EE
:1023C00018F482500C94E00E2AE3280F2F73233068
:1023D00018F486500C94370F27E3280F2F732630FC
:1023E00018F489500C94670F21E3280F2F732630BF
:1023F00018F48F500C94C40F2BE2280F2F73233046
:1024000018F485510C945510892F8E77803311F470
:102410000C94D710863411F40C942711883411F4DD
:102420000C947811089525B1342F3095232335B1BC
:10243000432B3FB7F894FC01680F791FE617F707A5
:1024400089F0819198E045B9000000C087FF25B967
:10245000880F000000C000C000C025B900C09A95D8
:1024600091F7ECCF3FBF089524B1242B24B99B01F1
:10247000220F331F620F731F0E94131287EC90E02C
:102480000197F1F700C00000089540E40C94341265
:1024900090936701809366010895E0916601F09141
:1024A0006701309721F00190F081E02D099480E0E0
:1024B0000895E0916601F0916701309799F02091BD
:1024C0001901222359F020913B0227FF07C0DC01AC
:1024D0002C9111962C93119725E02C930280F38177
:1024E000E02D0994089520916401309165018217CF
:1024F000930771F09093650180936401E091660108
:10250000F0916701309721F00680F781E02D099462
:10251000089520916201309163018217930771F051
:102520009093630180936201E0916601F0916701ED
:10253000309721F00084F185E02D0994089585B746
:10254000806885BF85B7806885BF089508950E941B
:102550009F120C94A61281E008950E942D1F0E94E4
:102560003E0A0E94B61F0C94900E4F925F927F928B
:102570008F929F92AF92BF92CF92DF92EF92FF9293
:102580000F931F93CF93DF93CDB7DEB72A970FB684
:10259000F894DEBF0FBECDBF0E949C0A0E94AB1212
:1025A000811111C08FEF89838A831B820E94361F9D
:1025B0008160782F9D838C8349815A816B818D81C5
:1025C0000E94711357C099E6C92E91E0D92E00E000
:1025D00010E0AA24A394B12C702E802F0E94340BFB
:1025E0004C01F601419051906F0148265926411443
:1025F000510431F40F5F1F4F0430110569F7D2CF3A
:102600008091F50181FD0E943D0B20E030E07501D5
:10261000022E02C0EE0CFF1C0A94E2F7C7018421CF
:102620009521892B09F12E837F828E209F2091E0B6
:10263000892809F490E098870E94361F8160782FDE
:102640009A8789874E815F8168858A850E94711388
:10265000000F111FF801E759FE4F80819181E82694
:10266000F926F182E08206C02F5F3F4F2C30310502
:1026700071F6C0CF109168010E944D121817D9F061
:102680000E944D12809368012A960FB6F894DEBF1F
:102690000FBECDBFDF91CF911F910F91FF90EF90B3
:1026A000DF90CF90BF90AF909F908F907F905F9082
:1026B0004F900C943B052A960FB6F894DEBF0FBEE0
:1026C000CDBFDF91CF911F910F91FF90EF90DF90E1
:1026D000CF90BF90AF909F908F907F905F904F90E2
:1026E0000895CF93DF93CDB7DEB72B970FB6F8944D
:1026F000DEBF0FBECDBF4F83588769877A878B8730
:10270000DE01119686E0FD0111928A95E9F785E0D8
:10271000FE01379601900D928A95E1F749815A8121
:102720006B817C818D819E810E941A1A2B960FB637
:10273000F894DEBF0FBECDBFDF91CF910895FC01AD
:10274000808191810E94E41C0895882309F413C1BB
:10275000682F8238C1F40E944D1281FD0CC169E3DB
:1027600080910D0190910E010E94871E0E94431DD1
:102770002FEF81EE94E0215080409040E1F700C0BF
:10278000000069E319C08338F9F40E944D1280FDFE
:10279000F2C063E580910D0190910E010E94871EA9
:1027A0000E94431D2FEF81EE94E021508040904025
:1027B000E1F700C0000063E580910D0190910E01EA
:1027C0000E94921E0C94431D8438C1F40E944D1245
:1027D00082FDD1C067E480910D0190910E010E94AD
:1027E000871E0E94431D2FEF81EE94E02150804010
:1027F0009040E1F700C0000067E4DECF8CEF860F69
:10280000813A38F480910D0190910E010E94871E4B
:10281000D9CF80E2860F883048F4677081E001C02C
:10282000880F6A95EAF70E94791DCCCF8BE5860F59
:10283000833070F4653A29F0663A31F083E890E02D
:1028400005C081E890E002C082E890E00C94731229
:1028500088E5860F873108F08EC0683A09F445C0D4
:10286000693A09F445C06A3A09F445C06B3A09F47B
:1028700045C06C3A09F445C06B3B09F445C06C3B5C
:1028800009F445C06D3A09F445C0603B09F445C000
:102890006E3A09F445C06F3A09F445C0613B09F44A
:1028A00045C0623B09F445C0633B09F445C0643B45
:1028B00009F445C0653B09F445C0663B09F445C0D1
:1028C000673B09F445C0683B09F445C0693B09F41E
:1028D00045C06D3B09F445C06E3B09F445C06A3BF9
:1028E00009F445C080E090E044C082EE90E041C031
:1028F00089EE90E03EC08AEE90E03BC085EB90E030
:1029000038C086EB90E035C083EB90E032C084EBBA
:1029100090E02FC087EB90E02CC08CEC90E029C0B9
:102920008DEC90E026C083E891E023C08AE891E036
:1029300020C082E991E01DC084E991E01AC081E2E3
:1029400092E017C083E292E014C084E292E011C0EA
:1029500085E292E00EC086E292E00BC087E292E050
:1029600008C08FE690E005C080E790E002C08AE2F0
:1029700092E00C9489120895882309F45BC0682FB3
:10298000823879F40E944D1281FF54C069E380912E
:102990000D0190910E010E94871E0E94431D69E364
:1029A00010C08338B1F40E944D1280FF43C063E52C
:1029B00080910D0190910E010E94871E0E94431D7F
:1029C00063E580910D0190910E010E94921E0C947E
:1029D000431D843879F40E944D1282FF2BC067E4B6
:1029E00080910D0190910E010E94871E0E94431D4F
:1029F00067E4E7CF8CEF860F813A18F380E2860F09
:102A0000883048F4677081E001C0880F6A95EAF762
:102A10000E947F1DDCCF8BE5860F833020F480E0A1
:102A200090E00C947312685A673120F480E090E0D3
:102A30000C9489120895882321F00E94791D0C942A
:102A4000431D0895882321F00E947F1D0C94431D8F
:102A500008954F925F926F927F92BF92CF92DF92D2
:102A6000EF92FF920F931F93CF93DF937C01D62FAA
:102A7000C72FFC01158112951F70028101110E9460
:102A8000961D0E943C1D882379F0002369F080E2A6
:102A90008D0F883048F082E00E94251D0E943C1D69
:102AA00091E0B82EB92601C0B12CCC2EC2948FE093
:102AB000C822D12CF601E859FF4F0C94D3298C2F52
:102AC000807FCF70882311F0C295C07F002399F0DA
:102AD000CC2309F46DC180E28D0F883010F0D11144
:102AE00004C08C2F0E94791D03C08C2F0E94891D69
:102AF0000E94431D5DC18D2F0E94BC14CC2309F49C
:102B00007CC180E28D0F883010F0D11104C08C2F71
:102B10000E947F1D03C08C2F0E948F1D0E94431DA9
:102B20006CC18C2F807FCF70803211F0C295C07F36
:102B3000DD2319F0D130C9F022C0002371F0112338
:102B400041F0113031F40E94AF1D8C2B0E94A91D61
:102B500054C10E94AF1D8C2B1DC0112319F01130E0
:102B600009F44BC10E94AC1D1AC0002321F016309D
:102B700008F043C10EC0153008F03FC110C000235B
:102B800061F0112331F0F701858180FF11C18F7051
:102B900085838C2F0E941B1530C111111AC18C2FF7
:102BA000C6C08C2F837009F050C0011132C18D2F27
:102BB000829586958770880F880F9D2F9F70492E6C
:102BC000512C612C712C082E04C0440C551C661C21
:102BD000771C0A94D2F7D4FF14C00FE010E020E075
:102BE00030E0B901A80104C0440F551F661F771FCC
:102BF0008A95D2F7CB01BA01609570958095909532
:102C000003C060E070E0CB01C695C695C370D0E00C
:102C1000C230D10561F0C330D10581F06429752936
:102C200086299729219771F00E945F1BF2C06429C1
:102C30007529862997290E94711BEBC00E945F1B92
:102C4000C301B2010E944D1BE4C0002319F08C2F78
:102C5000817001C08695882309F4DBC08D2F829591
:102C600086958770880F880F9D2F9F70492E512C55
:102C7000612C712C082E04C0440C551C661C771C5A
:102C80000A94D2F7D4FF14C00FE010E020E030E047
:102C9000B901A80104C0440F551F661F771F8A950C
:102CA000D2F7CB01BA01609570958095909503C0DD
:102CB00060E070E0CB01C695C695C3704C2F50E024
:102CC0004230510569F04330510589F06429752976
:102CD000862997294130510571F00E94251C99C021
:102CE00064297529862997290E94371C92C00E9461
:102CF000251CC301B2010E94131C8BC08D2F90E0D4
:102D0000FC01E05EF109E531F10508F04DC0E8583D
:102D1000FF4F0C94D329DF708C2F8F71002321F08B
:102D20000E94AC1B8D2F36CF0E94CD1B8D2F0E9491
:102D3000221563C0002341F0153008F05EC08C2FCF
:102D40008F710E94F21B59C0163008F056C0F7CFA1
:102D5000002339F08C2F8F710E94AC1B4EC00023D2
:102D6000C9F38C2F8F710E94CD1B47C0002329F01F
:102D70008C2F8F710E94971B40C00E94921B3DC0F8
:102D8000002349F0CF718C2F0E94AC1B63E08C2F85
:102D90000E941C1D32C081E00E94251D123068F186
:102DA00082E00E94251D29C0002331F0112391F2F9
:102DB0008D2F0E94A51321C0112399F2D93349F414
:102DC0005FEF67EE73E0515060407040E1F700C084
:102DD00000008D2F0E94BC1410C04C2F4F706D2F1F
:102DE000C7010E941D050E94BE1A17C04C2F4F70CC
:102DF0006D2FC7010E94CB0710C088E0C816D10410
:102E000041F05CF0EAE0CE1AD108F2E0CF16D1042E
:102E100020F40E944D120E943B05BB20F1F00E945D
:102E2000181D80FD1AC0F70112820E94121D0E9417
:102E3000AC1BC7010E943B170E94121DDF91CF916E
:102E40001F910F91FF90EF90DF90CF90BF907F90F8
:102E50006F905F904F900C94CD1BDF91CF911F919D
:102E60000F91FF90EF90DF90CF90BF907F906F9089
:102E70005F904F9008950F931F93CF93DF93EC01D2
:102E8000888199812B813C81232BB9F09F3F11F4DC
:102E90008F3F99F0CE010E944D05882371F0688123
:102EA00079818A810E94EF1C8C010E94491C0E943A
:102EB0004A1BB801CE010E942915DF91CF911F91C5
:102EC0000F9108950E94961D0E94A61D0C94431D0B
:102ED00080910D0190910E010E949D1E0C9462172D
:102EE0000E94861D0C946817E92FE295EF70F0E0C0
:102EF0003297EE30F105B0F4E357FF4F0C94D3292D
:102F0000803F91F018F4803E68F40EC0843F51F485
:102F10000BC0803E48F0813F29F406C093FB882710
:102F200080F9089580E0089581E008950E94E41CEE
:102F30000E9474170895CF93DF9300D000D01F92A2
:102F4000CDB7DEB70F900F900F900F900F90DF91DD
:102F5000CF910895CF93DF9300D000D000D0CDB7AC
:102F6000DEB726960FB6F894DEBF0FBECDBFDF9159
:102F7000CF9108951F93CF93DF93C091720116E014
:102F800080917301C81799F0D0E01C9FF0011D9F3C
:102F9000F00D1124EC58FE4F408151816281738104
:102FA000848195810E94AA172196C770E9CFDF918D
:102FB000CF911F9108954091A4015091A501609176
:102FC000A6017091A7018091A8019091A9010C948C
:102FD000AA178091A90182958F7009F054C0809141
:102FE000A601882309F44FC080917201A09173015A
:102FF0006091A4017091A5014091A7015091A80191
:10300000B6E08A1709F43FC090E041155105C1F1BF
:103010007F3F11F46F3FA1F1B89FF001B99FF00D10
:103020001124EC58FE4F218172132AC020816213B3
:1030300027C02281211124C0238134812417350720
:1030400010F421503109241B350B283C3105C0F404
:103050002091A9012F7020612093A90126E0289FCB
:10306000F001299FF00D1124E758FE4F80818F70E9
:103070008061808384EA91E00E943B170C94BA1728
:1030800001968770BECF0895CF92DF92EF92FF92A4
:103090000F931F93CF93DF93CDB7DEB762970FB631
:1030A000F894DEBF0FBECDBF8C0185E0F801DE01D4
:1030B0001D9601900D928A95E1F7D8014C911196D9
:1030C0005C91119712966C9112971396CD90DC90AB
:1030D00014973091A4017091A5018091A70190915E
:1030E000A801009709F46BC17F3F19F43F3F09F431
:1030F00066C1E090A601EE2009F4C0C02091A901AC
:10310000C816D90628F0F601E81BF90BCF0104C058
:10311000809590958C0D9D1DFF24F394883C91051E
:1031200078F0F12C207F09F0C6C07C2DD98AC88A9E
:1031300089890E949B1784EA91E00E943B17B1C0E5
:10314000822F807F09F046C0751314C0341312C05B
:10315000611110C02F7020612093A9010E94DB171C
:1031600084EA91E00E943B178091A901D80115964D
:103170008C932EC0CD2819F15F3F11F44F3FF9F029
:10318000F62E61111CC0809172012091730136E00E
:10319000821709F45AC090E0389FF001399FF00D72
:1031A0001124EC58FE4F7181571306C070814713EC
:1031B00003C07281711103C001968770E9CFF62EAA
:1031C000662309F427C18091A90181608093A90138
:1031D000F12C20C1751308C0341306C0611104C05E
:1031E0008091A901D801C3C04D875E878D859E85DA
:1031F0006A8B0E9496176A898823E1F16623D1F1D0
:103200002091A901822F82958F7090E0029774F02F
:103210008091A4019091A50198878F831986DB8600
:10322000CA862C87CE0107960E943B1786E0F801DC
:10323000A4EAB1E001900D928A95E1F70E94E917A6
:103240000E94DB17FF24F394E5C04D875E878D85D0
:103250009E850E94E41C292F22952F7030E0223099
:1032600031050CF0CBC09F7009F0C5C0805E88307E
:1032700008F4D0C0C8010E943B17E4CFC816D90695
:1032800008F453C0F601E81BF90BCF01883C910507
:1032900008F450C0F12C7C2DD98AC88A89890E94F3
:1032A0009B17E4EAF1E086E0DF011D928A95E9F7D9
:1032B0000E94DB17AFC0751314C0341312C0611124
:1032C00010C08091A901F8018583C8010E943B17B5
:1032D00086E0E4EAF1E0DF011D928A95E9F7FE2C31
:1032E00099C04D875E878D859E856A8B0E94961753
:1032F0006A89882309F4BECF662309F4BBCF2091E5
:10330000A901822F82958F7090E002970CF48ECFE6
:103310008091A4019091A5019A8389831B82DD820B
:10332000CC822E83CE0101967FCF809590958C0D17
:103330009D1DACCFF62E662309F49CCF75132EC0CD
:1033400034132CC02091A90120FD1FC0822F82952B
:103350008F70D9F0D80115962C9315978F3049F0BE
:103360008F5F982F9295907F822F8F70892B159663
:103370008C93C8010E943B1786E0F801A4EAB1E0F3
:1033800001900D928A95E1F793CF86E0F801A4EAC7
:10339000B1E001900D928A95E1F73CC04D875E87C0
:1033A0008D859E850E949617811140CF8091A9013D
:1033B00081608093A901C8010E943B172BC066233E
:1033C00009F458CF4D875E878D859E850E9496179C
:1033D000F82E882309F44ECF86E0F801A4EAB1E084
:1033E00001900D928A95E1F784EA91E00E949F1383
:1033F0000E94E9175DCF811139CF0CC0243031050F
:103400000CF038CF9F7009F431CFF8019581907F8F
:1034100009F02CCF8F2D62960FB6F894DEBF0FBE49
:10342000CDBFDF91CF911F910F91FF90EF90DF9073
:10343000CF9008951F93CF93DF93CDB7DEB72C972E
:103440000FB6F894DEBF0FBECDBF4F835887698794
:103450007A878B879C87CE0107960E944418882321
:1034600069F08F8198852A853B85232BF1F19F3F59
:1034700009F063C08F3F09F060C037C086E0FE01ED
:103480003796DE01119601900D928A95E1F76F81D2
:103490007885EA85FB85309741F17F3F11F46F3FD6
:1034A00021F12091730130E0C901019687709927BD
:1034B0004091720150E08417950709F447C0698371
:1034C0007A83FD83EC8396E0929FD001939FB00DA9
:1034D0001124AC58BE4FFE01319601900D929A9581
:1034E000E1F7809373010E94BA1716E08091720190
:1034F000909173018917C1F1189FC00111248C5854
:103500009E4F0E944418882379F1E09172011E9F1A
:10351000F0011124EC58FE4F40815181628173818A
:10352000848195810E94AA178091720190E0019692
:103530008770992780937201D9CF4F81588569850B
:103540007A858B859C850E94AA17CFCF0E94701721
:103550001092730110927201E4EAF1E086E0DF015B
:103560001D928A95E9F7C1CF2C960FB6F894DEBF6D
:103570000FBECDBFDF91CF911F910895EF92FF92C3
:103580000F931F93CF93DF938C01892B09F46CC0A9
:10359000F12CEE24E394E8012196F801849184371C
:1035A00040F4843008F051C0813081F0823019F14C
:1035B0005BC0853709F444C0A8F19CE7980F9037A9
:1035C00008F052C08F770E94BC1441C00E5F1F4F9D
:1035D000FE01C49180E28C0F883048F4C7708E2DB4
:1035E00001C0880FCA95EAF70E94991D14C08C2F5C
:1035F0000E94A5132DC00E5F1F4FFE01C49180E2F3
:103600008C0F883058F4C7708E2D01C0880FCA9572
:10361000EAF70E949F1D0E94431D1AC08C2F0E9432
:10362000BC1416C00E5F1F4FFE01C491CC2381F065
:103630008FE99FE00197F1F700C00000C150F6CF7D
:103640000E5F1F4FFE01F49003C00E94A5138E0170
:103650008F2D882309F49FCFEFE9FFE03197F1F731
:1036600000C000008150F5CFDF91CF911F910F91E5
:10367000FF90EF90089508950C943B1B0E943C1B13
:103680006093CC017093CD018093CE019093CF01D4
:103690000C94621708950C943E1B0F931F93009196
:1036A000CC011091CD012091CE013091CF01602B42
:1036B000712B822B932B1F910F910C943E1B0F9318
:1036C0001F930091CC011091CD012091CE0130913A
:1036D000CF0160237123822393231F910F910C94B8
:1036E0003E1B0F931F930091CC011091CD012091AF
:1036F000CE013091CF0160277127822793271F9138
:103700000F910C943E1B08950C94831B0E94841B04
:103710006093C8017093C9018093CA019093CB0153
:103720000C94621760E070E0CB010C94861B0F9341
:103730001F9341E050E060E070E08A019B0104C00B
:10374000000F111F221F331F8A95D2F7C901B8013C
:103750001F910F910C94861B0F931F9341E050E033
:1037600060E070E004C0440F551F661F771F8A9504
:10377000D2F78091C8019091C901A091CA01B0917E
:10378000CB018A019B01082B192B2A2B3B2BC9014A
:10379000B8011F910F910C94861B0F931F9341E06A
:1037A00050E060E070E004C0440F551F661F771FB3
:1037B0008A95D2F740955095609570958091C80193
:1037C0009091C901A091CA01B091CB018A019B01DE
:1037D000082319232A233B23C901B8011F910F9104
:1037E0000C94861B0F931F9341E050E060E070E063
:1037F00004C0440F551F661F771F8A95D2F780912A
:10380000C8019091C901A091CA01B091CB018A0170
:103810009B01082719272A273B27C901B8011F91B7
:103820000F910C94861B0F931F930091C801109168
:10383000C9012091CA013091CB01602B712B822BE1
:10384000932B1F910F910C94861B0F931F93009144
:10385000C8011091C9012091CA013091CB016023A8
:103860007123822393231F910F910C94861B0F9336
:103870001F930091C8011091C9012091CA01309194
:10388000CB0160277127822793271F910F910C94FA
:10389000861B08952CE0929F800D1124A82FA695D9
:1038A000A695A695877051E001C0550F8A95EAF755
:1038B00085E0A89FD001112420E030E070E0F901FC
:1038C000EA0FFB1FE655FE4F4081CB01022E02C0DE
:1038D000969587950A94E2F78170992781958427B8
:1038E0008523842780832F5F3F4F2530310539F7AB
:1038F00008952CE0929F800D1124682F669566959F
:103900006695982F977085E0689FB001112440E07C
:1039100050E080E0FA01E60FF71FE655FE4F2081E8
:1039200030E0092E02C0369527950A94E2F72170FF
:103930003327042E01C0220F0A94EAF7822B4F5F2F
:103940005F4F4530510531F70895CF92DF92EF92E6
:10395000FF920F931F93CF93DF938C01C090CC0104
:10396000D090CD01E090CE01F090CF018091C801C0
:103970009091C901A091CA01B091CB01C82AD92A5E
:10398000EA2AFB2ACFE1D0E0D701C6010C2E04C001
:10399000B695A795979587950A94D2F780FF06C0AC
:1039A000B8018C2F0E94E607019721F4219760F758
:1039B00080E001C08C2FDF91CF911F910F91FF907C
:1039C000EF90DF90CF900895CF93DF93EC010E94AA
:1039D000A51CBE010E94E607DF91CF9108951F93B9
:1039E000CF93DF93EB0190917101992321F0CB01EB
:1039F0000E94E41C13C0882349F0CB010E94A51C3F
:103A0000182F682FCE010E944A1C04C0CB010E94CF
:103A1000791C182FBE01812F0E94E607DF91CF91FC
:103A20001F9108958091D00185958595859508957C
:103A30008091D0018770089598E0899F90011124AA
:103A4000262B2093D0010C94AC1B2091D0018095A3
:103A500082238093D001982F977069F430E0482F2B
:103A6000082E000C550B2417350729F085958595F0
:103A700085950C94CD1B08959091D001977081E0AD
:103A800009F480E00895E0910D01F0910E0180911C
:103A9000F4018083E0910D01F0910E0190818091FD
:103AA000F301892B8083E0910D01F0910E0190814B
:103AB0008091F201892B80838091D101882381F04C
:103AC000E0910D01F0910E019081892B808380910E
:103AD0000D0190910E010E94221E81111092D101C0
:103AE00080910D0190910E010C9459128091F40176
:103AF00008959091F401892B8093F40108958095A5
:103B00009091F40189238093F40108951092F401B7
:103B100008959091F301892B8093F3010895809586
:103B20009091F30189238093F30108951092F3019A
:103B300008959091F201892B8093F2010895809568
:103B40009091F20189238093F20108951092F2017D
:103B500008958093D10108951092D1010895809124
:103B6000D101089580E090E00E94F42921E08D3E8B
:103B70009E4F09F020E0822F089582E090E00C949F
:103B8000E62983E090E00C94E62984E090E00C9430
:103B9000E629682F84E090E00C94FA29AB01BC017F
:103BA0008FE090E00C940C2AAB01BC0183E190E023
:103BB0000C940C2A60E070E0CB010C94D41D60E002
:103BC00070E0CB010E94CE1D0C94DA1D6DEE7EEFED
:103BD00080E090E00E94182A60E082E090E00E947D
:103BE000FA2960E083E090E00E94FA291092CC016B
:103BF0001092CD011092CE011092CF0160E084E0CE
:103C000090E00E94FA2960E085E090E00E94FA29A5
:103C100060E086E090E00E94FA296FEF87E090E094
:103C20000E94FA2940E050E0BA0188E090E00E944A
:103C30000C2A60E08DE090E00E94FA290C94DF1DD0
:103C40000C94E61DFC01329680911901882331F015
:103C500080913B0287FF02C09EE101C096E080E0B8
:103C6000915028F021912223D9F38F5FF9CF089545
:103C70009C01FC0132969FEF80E04191461789F04C
:103C80009F3F19F4411101C0982F8F5F8630A9F72B
:103C90009F3F39F0F901E90FF11D97FDFA95628315
:103CA00008950895FC01329608962081261301C0DC
:103CB00010823196E817F907C1F70895262F269547
:103CC000269526952E3168F4FC01E20FF11D6770F0
:103CD00021E030E001C0220F6A95EAF78281282BAB
:103CE00022830895262F2695269526952E3170F449
:103CF000FC01E20FF11D677021E030E001C0220FEE
:103D00006A95EAF7209582812823228308952091DD
:103D10001901222329F020913B0227FD0C945E1EFD
:103D20000C94381E20911901222329F020913B0286
:103D300027FD0C94721E0C94521E20911901FC0157
:103D40003296222331F080913B0287FF02C08EE140
:103D500001C086E0DF011D928A95E9F70895089574
:103D60000C94AF1E0E94B01E80914102843049F134
:103D70001092F60120E488E190E00FB6F894A8953F
:103D8000809360000FBE2093600080E00E943B059E
:103D90000E94B01E83B7817F846083BF83B7816038
:103DA00083BF7894889583B78E7F83BF0FB6F894CE
:103DB000A8958091600088618093600010926000F7
:103DC0000FBE089508950895CF930E94E21E0E94A9
:103DD0009C0A0E94E31EC0E08C2F0E94340B892BAA
:103DE00029F4CF5FC430C1F780E001C081E0CF91FA
:103DF000089508950C94F91E0E9470170E944D12A8
:103E00000E943B050C94FA1E1F920F920FB60F9260
:103E100011248F939F93AF93BF938091F6018111EB
:103E200013C08091370290913802A0913902B0916D
:103E30003A024196A11DB11D80933702909338023A
:103E4000A0933902B0933A02BF91AF919F918F91A5
:103E50000F900FBE0F901F90189582E084BD93E0E5
:103E600095BD9AEF97BD80936E0008952FB7F89493
:103E70008091370290913802A0913902B0913A02B4
:103E80002FBF0895CF92DF92EF92FF920F931F936F
:103E90002FB7F8944091370250913802609139025F
:103EA00070913A022FBF6A017B01EE24FF248C013E
:103EB00020E030E0C016D106E206F30610F44150CF
:103EC00051099A01281B390BC9011F910F91FF90CD
:103ED000EF90DF90CF90089578941F920F920FB6D5
:103EE0000F9211248F939F93AF93BF9380913702CA
:103EF00090913802A0913902B0913A020196A11D29
:103F0000B11D8093370290933802A0933902B09389
:103F10003A02BF91AF919F918F910F900FBE0F907A
:103F20001F90189581E08093E00080E28093D80094
:103F30001092C9008FE19EE40197F1F700C00000E4
:103F400087E090EBDC0180934A0290934B02A093B0
:103F50004C02B0934D029CE088E10FB6F894A8950E
:103F6000809360000FBE90936000FFCF0E94B21D4F
:103F7000811102C00E94201E0E94BD1D8093F50188
:103F80000E94C51D90E090933C0280933B020E94EA
:103F9000C11D682F70E080E090E00C944B1B809175
:103FA00017020895089508950895CF93DF93EC01C3
:103FB0000E94A921823011F08430D9F58091190135
:103FC000882339F080913B0287FF03C060E282E0E2
:103FD00002C068E081E08093E9008FEF9091E800F3
:103FE000815095FD06C095ED9A95F1F7000081117D
:103FF000F5CF8091E80085FF1CC0809119018111E7
:1040000005C040E050E068E070E003C070E040E0D0
:1040100050E0CE010E94C6218091E8008E77809307
:10402000E80080E2FE01A7EFB1E001900D928A95D1
:10403000E1F7DF91CF91089580914002811109C08D
:104040000E945B230E94B8238091E20084608093E9
:10405000E2000895109240020895089508950C9486
:10406000FC1E42E061EC81E00E94D52242E261EC5C
:1040700082E00C94D52280914302833009F460C021
:1040800030F4813071F0823009F499C008958A309B
:1040900009F485C08B3009F46BC0893009F0A7C0E2
:1040A00020C080914202813A09F0A1C08091E800CD
:1040B000877F8093E8008091460290914702892B88
:1040C00021F460E287EF91E003C060E080E090E0DF
:1040D00070E00E9411228091E8008B778093E800C5
:1040E000089580914202813209F081C08091460298
:1040F00090914702029708F07AC08091E800877F8C
:104100008093E8008091E80082FD05C08091410223
:104110008111F8CF6CC02091F3008091F20090E003
:10412000922B029729F48091F1008B7F813021F44A
:104130008091F100809317028091E8008B7753C043
:1041400080914202813A09F052C0809146029091DA
:104150004702892B09F04BC08091E800877F80934C
:10416000E8008091E80080FFFCCF8091190136C003
:10417000809142028132D9F58091460290914702A6
:10418000892BA9F58091E800877F8093E8000E9441
:104190000A2380914402809319010C947017809136
:1041A0004202813221F58091E800877F8093E80008
:1041B0000E940A23809145028093180208958091FD
:1041C0004202813AA1F48091E800877F8093E80061
:1041D0008091E80080FFFCCF809118028093F1006D
:1041E0008091E8008E778093E8000C940A2308956C
:1041F00084B7877F84BF0FB6F894A895809160003C
:10420000886180936000109260000FBE80E8809308
:104210006100109261000E94A7120E945B230E941D
:10422000B8238091E20084608093E20078940E9439
:1042300047260E94AD128FE091E00E9448128091C3
:104240004102853069F40E94B21E80913F028823AA
:10425000B1F30E94E41E882391F30E94B021EFCFB6
:104260000E94B5120E94D311EACF0C943721292F56
:10427000332723303105C9F064F42130310581F052
:104280002230310509F04CC08BE390E020EE38E09D
:104290004BC02132310521F12232310589F140C074
:1042A00082E190E02BE139E03FC099278130910510
:1042B00071F02CF4892BA1F5ECEDF8E00DC0823003
:1042C000910541F0039761F5ECEAF8E005C0ECECEC
:1042D000F8E002C0E2EBF8E0849190E09F0124C096
:1042E0006115710541F061307105D1F489E090E00C
:1042F0002BE039E019C089E090E022EF38E014C0EB
:104300006115710541F06130710551F48BE390E066
:104310002DE239E009C080E490E028E639E004C0ED
:1043200080E090E020E030E0FA01318320830895BE
:104330000895CF93C82F0E949821C0931902CF915E
:10434000089580914102843011F081E0089582E067
:10435000089580911902811102C00C94A121089541
:1043600080E189BD82E189BD09B400FEFDCF809165
:10437000D8008F7D8093D8008091E0008260809388
:10438000E0008091E00081FDFCCF0895CF92DF92A4
:10439000EF92FF920F931F93CF93DF93EC018B016A
:1043A0006A010E942923811133C0C114D10439F05C
:1043B000F60180819181081B190BC80FD91FE12CD0
:1043C000F12C0115110519F18091E80085FD16C049
:1043D0008091E8008E778093E800C114D10449F001
:1043E000F60180819181E80EF91EF182E08285E07C
:1043F0000FC00E942923882321F30AC0899180934A
:10440000F10001501109FFEFEF1AFF0ADACF80E047
:10441000DF91CF911F910F91FF90EF90DF90CF90A0
:10442000089520914802309149022617370748F035
:104430006115710539F42091E8002E772093E8008A
:1044400001C0B90140E061157105A9F12091410257
:10445000222309F443C0253009F442C02091E8002A
:1044600023FD40C02091E80022FD32C02091E800E9
:1044700020FFE9CF4091F3002091F20030E0342B8F
:10448000FC01CF016115710559F02830310540F468
:1044900081918093F100615071092F5F3F4FF1CFFF
:1044A00041E02830310509F040E02091E8002E7706
:1044B0002093E800C8CF4111C9CF0AC080914102C2
:1044C000882361F0853061F08091E80083FD0AC0A7
:1044D0008091E80082FFF2CF80E0089582E00895A5
:1044E00083E0089581E008952091480230914902C7
:1044F0002617370748F06115710539F42091E80057
:104500002E772093E80001C0B901FC0120E061157D
:10451000710591F180914102882309F440C08530F2
:1045200009F43FC08091E80083FD3DC08091E80020
:1045300082FD2FC08091E80080FFE9CF2091F30039
:104540008091F20090E0922B6115710559F088304E
:10455000910540F424912093F10031966150710946
:104560000196F2CF21E0089709F020E08091E80061
:104570008E778093E800CBCF2111CCCF0AC08091F9
:104580004102882361F0853061F08091E80083FD6D
:104590000AC08091E80082FFF2CF80E0089582E0B7
:1045A000089583E0089581E00895982F973058F595
:1045B0009093E900981739F07091EC002091ED008C
:1045C0005091F00003C0242F762F50E021FF19C036
:1045D0003091EB003E7F3093EB003091ED003D7F5A
:1045E0003093ED003091EB0031603093EB0070932D
:1045F000EC002093ED005093F0002091EE0027FF97
:1046000007C09F5FD3CF8F708093E90081E008954A
:1046100080E008958091420287FF11C08091E800F8
:1046200082FD05C0809141028111F8CF11C08091B7
:10463000E8008B770BC080914102882349F080917C
:10464000E80080FFF8CF8091E8008E778093E80043
:1046500008952091E4003091E50095E64091EC004A
:10466000842F817040FF22C08091E80080FD1CC033
:1046700080914102882391F0853091F08091EB0088
:1046800085FD10C04091E4005091E50042175307AA
:1046900029F39A01915011F784E0089582E008957A
:1046A00083E0089581E0089580E008954091E80056
:1046B00042FFDECF08950E94C9230E94D123E0EE7D
:1046C000F0E0808181608083E8EDF0E080818F7789
:1046D000808319BCA7EDB0E08C918E7F8C93808194
:1046E0008F7E80831092400208950F931F93CF9383
:1046F000DF930E94C9230E94D123C8EDD0E08881B6
:104700008F77888388818068888388818F7D88837C
:1047100019BC1092410210923D0210923F02109279
:104720003E0200EE10E0F80180818B7F808388815B
:104730008160888342E060E080E00E94D522E1EE63
:10474000F0E080818E7F8083E2EEF0E08081816006
:104750008083808188608083F80180818E7F808360
:10476000888180618883DF91CF911F910F91089597
:10477000E8EDF0E080818F7E8083E7EDF0E08081DE
:104780008160808384E082BF81E0809340020C944A
:104790007523E8EDF0E080818E7F80831092E20047
:1047A00008951092DA001092E10008951F920F927E
:1047B0000FB60F9211242F933F934F935F936F93F4
:1047C0007F938F939F93AF93BF93EF93FF938091CA
:1047D000E10082FF0BC08091E20082FF07C0809160
:1047E000E1008B7F8093E1000E9446268091DA00F1
:1047F00080FF1FC08091D80080FF1BC08091DA002D
:104800008E7F8093DA008091D90080FF0DC080E117
:1048100089BD82E189BD09B400FEFDCF81E08093AE
:1048200041020E941C2005C019BC109241020E9446
:104830002A208091E10080FF19C08091E20080FF72
:1048400015C08091E2008E7F8093E2008091E200AB
:1048500080618093E2008091D80080628093D800CC
:1048600019BC85E0809341020E942E208091E100D6
:1048700084FF30C08091E20084FF2CC080E189BDBC
:1048800082E189BD09B400FEFDCF8091D8008F7D03
:104890008093D8008091E1008F7E8093E100809129
:1048A000E2008F7E8093E2008091E200816080933D
:1048B000E20080913D02882311F084E007C08091DE
:1048C000E30087FD02C081E001C083E080934102E4
:1048D0000E942F208091E10083FF29C08091E20097
:1048E00083FF25C08091E100877F8093E10082E013
:1048F0008093410210923D028091E1008E7F80936F
:10490000E1008091E2008E7F8093E2008091E200DE
:1049100080618093E20042E060E080E00E94D52266
:104920008091F00088608093F0000E942D20FF911C
:10493000EF91BF91AF919F918F917F916F915F9117
:104940004F913F912F910F900FBE0F901F90189590
:104950001F920F920FB60F9211242F933F934F93F4
:104960005F936F937F938F939F93AF93BF93CF93F7
:10497000DF93EF93FF93C091E900CF708091EC003B
:10498000D82FD17080FDD0E81092E9008091F0001E
:10499000877F8093F00078940E94EC241092E900C5
:1049A0008091F00088608093F000CD2BCF70C09391
:1049B000E900FF91EF91DF91CF91BF91AF919F916E
:1049C0008F917F916F915F914F913F912F910F90B8
:1049D0000FBE0F901F9018951F93CF93DF93CDB705
:1049E000DEB7AA970FB6F894DEBF0FBECDBFE2E4E4
:1049F000F2E088E08E0F9091F10091938E13FBCF3F
:104A00000E943B208091E80083FF28C180914202F0
:104A100090914302492F50E04A30510508F01EC1E1
:104A2000FA01E556FF4F0C94D329803821F08238E3
:104A300009F014C108C080913E0290913F02992371
:104A400089F082600FC0809146028F70873008F035
:104A500005C18093E9008091EB0085FB882780F9F0
:104A60001092E9009091E800977F9093E80080937E
:104A7000F1001092F100D0C0282F2D7F09F0EEC078
:104A8000882319F0823061F0E9C0809144028130BE
:104A900009F0E4C0933009F080E080933F022EC01B
:104AA0008091440281112AC0809146028F702FEFBD
:104AB000280F263008F0D2C08093E9002091EB0047
:104AC00020FF1CC0933021F48091EB00806214C061
:104AD0009091EB0090619093EB0021E030E0A90110
:104AE00002C0440F551F8A95E2F74093EA001092E6
:104AF000EA008091EB0088608093EB001092E9005F
:104B00008091E800877F8093E8000E940A23A6C076
:104B10008111A4C0109144021F778091E300807836
:104B2000812B8093E3008091E800877F8093E800E9
:104B30000E940A238091E80080FFFCCF8091E3006F
:104B400080688093E300111102C082E001C083E01D
:104B50008093410283C08058823008F07FC08091EA
:104B60004402909145028C3D53E0950779F583E02E
:104B70008A838AE289834FB7F894DE01139620E096
:104B80003EE051E2E32FF0E050935700E49120FF24
:104B900003C0E295EF703F5FEF708E2F90E0EA3038
:104BA00010F0C79601C0C0968D939D932F5F24315E
:104BB00049F74FBF8091E800877F8093E8006AE261
:104BC00070E0CE0101960E94112215C0609146024C
:104BD00070914702AE014F5F5F4F0E943521BC01CB
:104BE000892BE1F19091E800977F9093E80089810B
:104BF0009A810E9474228091E8008B778093E8006C
:104C00002DC0803859F58091E800877F8093E800B7
:104C100080913D028093F1008091E8008E7773CF00
:104C200081111CC0909144029230C0F48091E80040
:104C3000877F8093E80090933D020E940A23809131
:104C40003D02811106C08091E30087FD02C081E032
:104C500001C084E0809341020E9431208091E800ED
:104C600083FF0AC08091E800877F8093E8008091ED
:104C7000EB0080628093EB00AA960FB6F894DEBF3B
:104C80000FBECDBFDF91CF911F9108950895CF93AF
:104C9000809141028823A1F0C091E900CF709091EA
:104CA000EC00892F817090FD80E8C82B1092E900FC
:104CB0008091E80083FD0E94EC24CF70C093E9004E
:104CC000CF9108955058BB27AA270E947A260C94AA
:104CD00025280E94172838F00E941E2820F039F459
:104CE0009F3F19F426F40C94ED270EF4E095E7FBB2
:104CF0000C94E727E92F0E94362858F3BA17620769
:104D000073078407950720F079F4A6F50C945828CA
:104D10000EF4E0950B2EBA2FA02D0B01B9019001D6
:104D20000C01CA01A0011124FF27591B99F0593F1A
:104D300050F4503E68F11A16F040A22F232F342F62
:104D40004427585FF3CF469537952795A795F040B0
:104D50005395C9F77EF41F16BA0B620B730B840BC5
:104D6000BAF09150A1F0FF0FBB1F661F771F881F7D
:104D7000C2F70EC0BA0F621F731F841F48F48795D5
:104D800077956795B795F7959E3F08F0B0CF9395C7
:104D9000880F08F09927EE0F9795879508950E9440
:104DA000E3260C9425280E941E2858F00E941728FC
:104DB00040F029F45F3F29F00C94E72751110C943F
:104DC00059280C94ED270E94362868F39923B1F3F3
:104DD000552391F3951B550BBB27AA276217730721
:104DE000840738F09F5F5F4F220F331F441FAA1FB5
:104DF000A9F335D00E2E3AF0E0E832D09150504071
:104E0000E695001CCAF72BD0FE2F29D0660F771F1E
:104E1000881FBB1F261737074807AB07B0E809F004
:104E2000BB0B802DBF01FF2793585F4F3AF09E3F89
:104E3000510578F00C94E7270C9459285F3FE4F370
:104E4000983ED4F3869577956795B795F7959F5FCC
:104E5000C9F7880F911D9695879597F90895E1E018
:104E6000660F771F881FBB1F621773078407BA0777
:104E700020F0621B730B840BBA0BEE1F88F7E095D2
:104E8000089529F416F00C94E7270C9458280C94F4
:104E9000ED270E943E28A8F39638A0F707F80F9256
:104EA000E8942BE33AEA48EB5FE70E94EB280F9285
:104EB0000F920F924DB75EB70F920E94A128EAE4BD
:104EC000F1E00E94F0274F915F91EF91FF91E595FE
:104ED000EE1FFF1F49F0FE57E0684427EE0F441F06
:104EE000FA95E1F74195550B0E946B280F9007FE4C
:104EF0000C945F2808950E943E2888F09F5798F0F0
:104F0000B92F9927B751B0F0E1F0660F771F881FCE
:104F1000991F1AF0BA95C9F714C0B13091F00E94E8
:104F20005828B1E008950C945828672F782F8827C7
:104F3000B85F39F0B93FCCF3869577956795B3950F
:104F4000D9F73EF490958095709561957F4F8F4F7E
:104F50009F4F0895E89409C097FB3EF49095809583
:104F6000709561957F4F8F4F9F4F9923A9F0F92F2F
:104F700096E9BB279395F695879577956795B795AD
:104F8000F111F8CFFAF4BB0F11F460FF1BC06F5F93
:104F90007F4F8F4F9F4F16C0882311F096E911C0A5
:104FA000772321F09EE8872F762F05C0662371F0C6
:104FB00096E8862F70E060E02AF09A95660F771FDA
:104FC000881FDAF7880F9695879597F9089597F9CE
:104FD0009F6780E870E060E008959FEF80EC08959F
:104FE000DF93CF931F930F93FF92EF92DF927B019A
:104FF0008C01689406C0DA2EEF010E94E828FE01B9
:10500000E894A5912591359145915591A6F3EF012D
:105010000E947A26FE019701A801DA9469F7DF90D1
:10502000EF90FF900F911F91CF91DF910895002491
:105030000A941616170618060906089500240A94FD
:1050400012161306140605060895092E0394000C83
:1050500011F4882352F0BB0F40F4BF2B11F460FF12
:1050600004C06F5F7F4F8F4F9F4F089557FD90583B
:10507000440F551F59F05F3F71F04795880F97FB1C
:10508000991F61F09F3F79F08795089512161306D6
:105090001406551FF2CF4695F1DF08C01616170605
:1050A0001806991FF1CF869571056105089408953A
:1050B000E894BB2766277727CB0197F908959B01D2
:1050C000AC0160E070E080E89FE30C94CF260C9484
:1050D000E7270C944A290E943E28D8F39923C9F364
:1050E000940F511DA3F39150504094F059F0882330
:1050F00032F0660F771F881F91505040C1F79E3FD6
:1051000051052CF7880F911D9695879597F908956D
:105110005F3FACF0983E9CF0BB27869577956795EE
:10512000B79508F4B1609395C1F7BB0F58F711F428
:1051300060FFE8CF6F5F7F4F8F4F9F4FE3CF0C949F
:105140005928FA01DC01AA0FBB1F9B01AC01BF5714
:1051500028F4222733274427507820C0B75190F4F1
:10516000AB2F0024469537952795011CA395D2F3C4
:10517000002071F0220F331F441FB395DAF30ED0D5
:105180000C94622661307105A0E88A07B94630F4B4
:105190009B01AC016627772788279078309621F00D
:1051A000208331834283538308950E94E8280C941E
:1051B00025280E94172838F00E941E2820F09523E9
:1051C00011F00C94E7270C94ED2711240C94592826
:1051D0000E94362870F3959FC1F3950F50E0551F3C
:1051E000629FF001729FBB27F00DB11D639FAA273C
:1051F000F00DB11DAA1F649F6627B00DA11D661F8B
:10520000829F2227B00DA11D621F739FB00DA11DAB
:10521000621F839FA00D611D221F749F3327A00D65
:10522000611D231F849F600D211D822F762F6A2F01
:1052300011249F5750409AF0F1F088234AF0EE0F66
:10524000FF1FBB1F661F771F881F91505040A9F793
:105250009E3F510580F00C94E7270C9459285F3F3E
:10526000E4F3983ED4F3869577956795B795F795CF
:10527000E7959F5FC1F7FE2B880F911D9695879547
:1052800097F908959F930E945A290F9007FCEE5FAB
:105290000C9483299F3F31F0915020F487957795A6
:1052A0006795B795880F911D9695879597F90895FD
:1052B0000C94ED270E943E28D8F3E894E0E0BB2749
:1052C0009F57F0F02AED3FE049EC06C0EE0FBB0F10
:1052D000661F771F881F28F0B23A6207730784079A
:1052E00028F0B25A620B730B840BE3959A9572F710
:1052F000803830F49A95BB0F661F771F881FD2F74E
:1053000090480C944C29EF93E0FF07C0A2EA2AEDE5
:105310003FE049EC5FEB0E947A260E9425280F901F
:10532000039401FC9058E2E7F1E00C9497299F93D5
:105330008F937F936F93FF93EF939B01AC010E9438
:10534000D528EF91FF910E94F0272F913F914F9127
:105350005F910C94D528AA1BBB1B51E107C0AA1F63
:10536000BB1FA617B70710F0A61BB70B881F991F06
:105370005A95A9F780959095BC01CD01089597FBAA
:10538000072E16F4009407D077FD09D00E94AB29B0
:1053900007FC05D03EF4909581959F4F0895709538
:1053A00061957F4F0895EE0FFF1F0590F491E02D5A
:1053B0000994FC014150504030F001900616D1F79D
:1053C0003197CF010895882799270895F999FECF3D
:1053D00092BD81BDF89A992780B50895A6E1B0E005
:1053E00044E050E00C94202AA8E1B0E042E050E014
:1053F0000C94202A262FF999FECF92BD81BDF89AF0
:10540000019700B4021639F01FBA20BD0FB6F89408
:10541000FA9AF99A0FBE08950396272F0E94FB2946
:105420000E94FA29252F0E94FB29242F0C94FB2986
:105430000196272F0E94FB290C94FA29DC01CB014D
:10544000FC01F999FECF06C0F2BDE1BDF89A319694
:1054500000B40D9241505040B8F70895F894FFCF32
:10546000010201191A1B1C1D1E1F202122D201CF6F
:105470001FD51FD21FD31FD41F01F6F7C6949596D0
:0A548000976730313233F0F1F4F594
:00000001FF
