:100000000C9460000C947D000C947D000C947D0099
:100010000C947D000C947D000C947D000C947D006C
:100020000C947D000C947D000C947D000C948E0D3E
:100030000C947D000C947D000C947D000C947D004C
:100040000C947D000C947D000C947D000C947D003C
:100050000C947D000C947D000C947D000C947D002C
:100060000C94FB000C947D000904070405040304B0
:100070000B04110413040D040F04150419041B04CC
:100080001D0417043504330431042F0437043D04E0
:100090003F0439043B044104450447044904430434
:1000A0005B045904570455045D04630465045F044C
:1000B000610467046B046D046F046904001080FF21
:1000C00011241FBECFEFD8E0DEBFCDBF11E0A0E00E
:1000D000B1E0E4E1F4E202C005900D92A23BB10769
:1000E000D9F714E0A2EBB1E001C01D92A73DB10722
:1000F000E1F70E947F000C9408120C94000084B772
:10010000877F84BF88E10FB6F894809360001092D7
:1001100060000FBE90E080E80FB6F8948093610015
:10012000909361000FBE78940E94DC030E947104DA
:100130000E942D020E94DB0C0E94A60F10926A03FF
:1001400010926903D0E010E0C0E000E00E94B30329
:10015000E0916903F0916A033097C1F38091B30194
:10016000081709F181E00E94E403CC2311F0CF5F6E
:10017000EDCFD53618F4DF5FC1E0E8CFC1E0C10FA5
:1001800010FF04C08091B3018F5F01C080E00E9426
:10019000EF03C73018F41C2FD0E0EECF0091B3016D
:1001A000D0E010E0E9CF0995D1CF1092060281E0AE
:1001B0008093040210920302E9EBF0E080818E7FCD
:1001C000808380818D7F808388E48093B80085E47C
:1001D0008093BC00089585ED8093BC008091BC00A5
:1001E00084FDFCCF10920602089585EC8093BC003C
:1001F0001092060208951F920F920FB60F921124CB
:100200002F933F934F935F936F937F938F939F931E
:10021000AF93BF93CF93EF93FF938091B900887F03
:10022000803609F481C068F5883209F45BC090F427
:10023000803109F454C038F4882309F4F8C08830B8
:1002400009F44DC0F8C0883109F44CC0803209F47B
:1002500053C0F1C0803409F4E0C048F4803309F49D
:100260004BC0883309F0E7C08093BA01B0C0803535
:1002700009F4D3C0883509F442C0883409F0DBC0E2
:10028000D8C0883909F4A6C0A8F4883709F44CC04E
:1002900038F4883609F448C0803709F445C0CBC02B
:1002A000883809F497C0803909F44EC0803809F0C5
:1002B000C2C04AC0803B09F48FC038F4803A09F4C8
:1002C00059C0883A09F488C0B6C0803C09F4A9C076
:1002D000883C09F4A6C0883B09F493C0ACC0809167
:1002E000050299C0E091DE0181E08E0F8093DE016E
:1002F000F0E0E152FE4F8EC08093BA019AC0E091C7
:10030000DE0181E08E0F8093DE018091BB00F0E082
:10031000E152FE4F80838091040281118AC081E006
:100320008093030284EA7EC083E0809306021092E9
:100330008C039091B9018091B40198136EC0109212
:10034000B4011092B90169C080918C03803268F4C5
:10035000E0918C0381E08E0F80938C03F0E080911C
:10036000BB00E459FC4F808358C08091BB00809350
:10037000060253C00E94EB0081E08093B5014091DA
:100380008C038091B401CAE06C2F0E94041120E21A
:10039000929FC001112450E06CE673E083579C4F9C
:1003A0000E949C118091B4016C2F0E940411E92FCE
:1003B000F0E080918C03E353FB4F808310928C0319
:1003C0008091B4018F5F8093B4011092B5010E94B7
:1003D000F50031C085E822C084E0809306021092C7
:1003E000BC011092BB01E0910102F091020209955B
:1003F0008091BB01811105C081E08093BB01109207
:10040000BD01E091BC0181E08E0F8093BC01F0E062
:10041000E354FE4F80818093BB0085EC8093BC0049
:100420000AC085EC8093BC001092060204C01092B2
:10043000BA010E94EB00FF91EF91CF91BF91AF9174
:100440009F918F917F916F915F914F913F912F91EC
:100450000F900FBE0F901F90189580E18093BA0007
:100460000C94D500FC01A181009701F19B01215062
:1004700031092A303105D0F420812E37B9F42A2FE2
:1004800030E02617370790F4AC014E5F5F4FFA015A
:1004900060E07E2F741B7A1718F471916727F9CFEB
:1004A000FC01E20FF31F81E09281691380E008955F
:1004B0009091B801911106C091E09093B8018530F8
:1004C00009F488E08093B3018C3010F490E002C00E
:1004D00080E090E0FC01EE0FFF1FE80FF91FE75FDF
:1004E000FE4F8181928190936A03809369030E94F9
:1004F000740481E08093B2018091690390916A0352
:10050000892B51F01092680310926B0310926703CD
:1005100080E090E00E9489108091B301883001F55D
:1005200020912C0230912D02EEE2F2E060E041E0F9
:1005300050E0CF018E5292406193DA0102C0AA0FBF
:10054000BB1F8A95E2F7CD01822B932B675F6E3735
:1005500029F490932D0280932C0208959C01E9CFF9
:100560000895BF92CF92DF92EF92FF920F931F9365
:10057000CF93DF93FC01B380B394048110E0102F7C
:1005800000278581082BC0E0D0E0EE24E394F12C15
:10059000680181E0C822DD2497010C2E02C0220FE1
:1005A000331F0A94E2F720233123232B59F083E0F1
:1005B000B81203C0C114D10429F46C2F6F5F8B2DC6
:1005C0000E94010F2196CE30D10531F7DF91CF91F6
:1005D0001F910F91FF90EF90DF90CF90BF90089503
:1005E000FC01228130E0322F22278381282B22FF39
:1005F00022C081E080936B038093680310926703AD
:100600008091B201813019F48091B30104C082302D
:1006100021F4809166038093B70181E08093B60155
:1006200080E090E00E94891086E290E190936A0356
:100630008093690308958091B601882399F0109200
:10064000B6018091B201813021F48091B7010E94FE
:1006500058028091B201823029F48091B70190E074
:100660000C9489100895DF92EF92FF920F931F93DD
:10067000CF93DF9300D000D01F92CDB7DEB78C01AF
:100680007B010E943202882309F460C0F801D38004
:100690009281913A99F118F4903AB9F057C0923A90
:1006A00009F445C0933A09F051C0C80103960F9070
:1006B0000F900F900F900F90DF91CF911F910F919E
:1006C000FF90EF90DF900C94F00249815A816B818A
:1006D0007C818D810E94E010811138C0B701C80172
:1006E0000F900F900F900F900F90DF91CF911F916F
:1006F0000F91FF90EF90DF900C94B1028FEF8D0D72
:10070000883018F480E00E9458020E94DB0C8D2D86
:1007100090E00F900F900F900F900F90DF91CF917E
:100720001F910F91FF90EF90DF900C9489108D2D09
:100730000F900F900F900F900F90DF91CF911F911E
:100740000F91FF90EF90DF900C9458020F900F9054
:100750000F900F900F90DF91CF911F910F91FF900D
:10076000EF90DF9008959091B9018091B4019817AE
:1007700010F58091B50181111EC08091B9014AE048
:10078000642F0E940411E92FF0E0E353FB4F208116
:100790008091B90130E00E94041140E2949FC001B1
:1007A0001124B90183579C4F0E9433038091B901F2
:1007B0008F5F8093B90108958FEF84B915B88AB916
:1007C0001BB887B988B90895813021F0853021F0B0
:1007D000877003C085E001C081E088B90895CF9398
:1007E000DF931F92CDB7DEB789832FEF2BB925B9E1
:1007F000898190E0FC013197EE30F10500F5EC5C69
:10080000FF4F0C9424115E981CC05B981AC05D9831
:1008100018C05A9816C05C9814C0589812C05998BD
:1008200010C029980EC05F980CC02D980AC02C9853
:1008300008C02A9806C02B9804C0289802C02BB97B
:1008400025B90F90DF91CF91089590E0FC01319789
:10085000EE30F105F8F4EE5BFF4F0C9424115E9836
:1008600008955B9808955D9808955A9808955C9846
:1008700008955898089559980895299808955F986B
:1008800008952D9808952C9808952A9808952B98E6
:1008900008952898089590E0FC013197EE30F10515
:1008A000F8F4E05BFF4F0C9424115E9A08955B9A74
:1008B00008955D9A08955A9A08955C9A0895589AF1
:1008C0000895599A0895299A08955F9A08952D9A3E
:1008D00008952C9A08952A9A08952B9A0895289A93
:1008E00008951BB815B808958FEF8BB985B9089591
:1008F000EF92FF920F931F93CF93DF9300E010E0EE
:100900007801EE0CFF1CE701C00FD11FC85FDD4F5F
:100910008A818130C9F41A8289810E94EF0388811B
:10092000813019F08881853051F4F701E00FF11F13
:10093000E85FFD4F8081813029F485E004C0888123
:10094000877001C081E088B90F5F1F4F0C3011051F
:10095000B9F6DF91CF911F910F91FF90EF9008951D
:10096000809130038F5F8093300380916803811101
:100970000AC00E947104809168038F5F80936803AE
:1009800080E18093490360912D0350912E034091A3
:100990002F0330916B032091670380E090E076E9AC
:1009A000FC01EE0FFF1FE80FF91FE85FFD4FA2816A
:1009B000A13041F41282608151817093490320E09B
:1009C00030E041E001968C30910551F760932D03A2
:1009D00050932E0340932F0330936B0320936703B0
:1009E00080912C03882389F08091080191E0980F71
:1009F000909308010E94E4030E9471048091080111
:100A0000863018F081E080930801809130038111D5
:100A10000BC090915703992319F091E090932C0308
:100A2000909149039093570390915703891307C0FE
:100A300080E00E94E4030E94740410922C038091D1
:100A40002F03813031F580912E030E94EF038091B6
:100A50002D030E94E40380916B0391E0980F909323
:100A60006B03811116C08091670391E0980F9093FA
:100A70006703843670F08091570390913003981784
:100A800019F010926B03089510922F0380E1809368
:100A90004903089530912B0320912A0380E090E0D0
:100AA000FC01EE0FFF1FE80FF91FE85FFD4F4281C9
:100AB000413019F412823081218101968C309105E8
:100AC00079F730932B0320932A03809129038F5FBA
:100AD000809329030E947404809129030E94E403F7
:100AE0005091290340912B03252F332727FD309563
:100AF000842F90E02817390719F40E94710409C067
:100B000080912A0354301CF0443009F08F5F0E941A
:100B1000EF0380912903853011F410922903089581
:100B2000DF92EF92FF920F931F93CF93DF93809109
:100B3000670391E0980F90936703882389F0809171
:100B40006B0391E0980F90936B030E94E4038091F4
:100B50006B03863008F449C081E080936B0345C085
:100B60008091680391E0980F90936803813538F382
:100B7000109268030E947404C1E1D3E00DE113E018
:100B8000E12CF12C94E6D92EF701EE0FFF1FEE0DAC
:100B9000FF1DE85FFD4F8281813031F48181D801F2
:100BA0008C93818188831282F80180819FEF980F56
:100BB00090830E942504888191E0980F98830E9479
:100BC0002504D8018C918F3028F088818F3010F067
:100BD000DC92D882BFEFEB1AFB0A21960F5F1F4F02
:100BE000ECE0EE16F10481F6AACFDF91CF911F91D0
:100BF0000F91FF90EF90DF900895CF93809168035D
:100C000091E0980F909368039091CF02891394C05C
:100C10008091670391E0980F90936703909107018B
:100C2000981708F089C01092670380916B030E94A7
:100C3000E403809106018C3040F40E9425048091E9
:100C400006018F5F8093060177C00E947404809133
:100C500006018F3008F44FC082E0809307011092A4
:100C6000CF02109268038091CE0291E0980F90938A
:100C7000CE0280FF1AC080916B030E94E403C0E0A3
:100C8000809106018C508C0F0E942504CF5FCC30E0
:100C9000B9F78091CE02853120F1809106018F5FF6
:100CA000809306011092CE021CC080916B03282F06
:100CB00030E02530310514F48F5F01C081E00E94DF
:100CC000E403C0E04C2F50E02091060130E02E50AC
:100CD000310942175307ECF6CF5F8C2F0E94250491
:100CE000F1CF809106018B31A8F08CE3809307014E
:100CF0001092CF020FC0C0E0809106018B508C0F84
:100D00000E942504CF5FCC30B9F7809106018F5F38
:100D100080930601809106018B3170F08DE0809305
:100D2000060180916B0391E0980F90936B038530DF
:100D300018F081E080936B03CF91089540914802B1
:100D400060914702509168033091670320914602F9
:100D500080E090E0FC01EE0FFF1FE80FF91FE85F55
:100D6000FD4F72817130A1F4128240816181242F84
:100D700030E02230310534F05FEF540F253031057B
:100D80002CF401C0542F31E0340F01C0342F252F33
:100D900001968C309105F1F640934802609347022A
:100DA0005093680330936703209346020E947404B3
:100DB000809146020E94E40380914602992787FDB4
:100DC00090952091480230E08217930741F480917A
:100DD000470281500E9425048091470221C0209142
:100DE000680330E08217930759F4809147020E940C
:100DF00025049091480280914702943089F412C0F2
:100E00002091670330E08217930779F480914702BD
:100E10000E9425049091460280914702943011F47B
:100E20008F5F01C081500E942504209146022F5FF0
:100E300020934602332727FD30958091670390E089
:100E40008217930724F480916803809346020895E3
:100E50000F931F93CF93DF9330914502209144026B
:100E6000D0916B03C0916803B0910101A0913F0242
:100E700070914002609141025091420240914302C0
:100E800080E090E0FC01EE0FFF1FE80FF91FE85F24
:100E9000FD4F1281113089F412822081253019F022
:100EA0003081218102C027E034E040E050E060E082
:100EB00070E0A0E0B1E0C1E0D1E001968C30910596
:100EC00009F73093450220934402D0936B03C093FB
:100ED0006803B0930101A0933F02709340026093B6
:100EE000410250934202409343020E947404809155
:100EF0006B030E94E403E0916803E63018F0CBEF47
:100F0000CE0F01C0C0E0C093000180916B0383301D
:100F100009F4EFC030F4813059F0823009F477C021
:100F200055C2843009F45BC1853009F4DDC14EC27D
:100F300040914502242F332727FD3095213031057C
:100F4000C9F48091680390E02C2F332727FD30955A
:100F5000281739070CF03AC28091440281508C1B4B
:100F60000E942504809144028F5F8C0F0E9425040B
:100F7000CF5FE7CF215031098E2F90E08217930782
:100F80000CF424C2C0914402942F9C0F9E1BDFEFEF
:100F9000D90F423019F4CE0FCF5F0BC08EEF8E0FFA
:100FA0008C0FC82FC40F443021F4DEEFD90FC2E0FC
:100FB000C80F80913F02811107C081E080933F02FA
:100FC000D0933E02C0933D02E55037FF03C03195F8
:100FD000219531091E2F121B17FD11C0C0E0809111
:100FE0003E028C1B811B0E94250480913D02810FD3
:100FF0008C0F0E942504CF5FC53089F7E7C1DC174D
:101000000CF0E4C18D2F0E942504DF5FF8CF909192
:101010004502292F332727FD309522303105B9F4B9
:101020008091680390E02C2F332727FD30952817F7
:1010300039070CF0CBC1809144028C1B0E9425041F
:10104000809144028C0F0E942504CF5FE9CF8091EC
:101050004402890FC82FCE0F8E1B943019F0C25056
:10106000825002C08350C4502250310937FF03C060
:101070003195219531096E2F70E0621773070CF4DA
:10108000A5C190914002911107C091E09093400258
:1010900080933E02C0933D02DBEFDE0FD21BD7FDF3
:1010A00025C0C0E080913E0281508D1B8C1B0E94A8
:1010B000250480913D028D0F9FEF9C0F890F0E94A8
:1010C0002504CF5FC53071F781C140916B0350E0BB
:1010D00020914502332727FD3095D1E0D80F4217E4
:1010E00053070CF08D2F0E9425048D2F8C176CF365
:1010F0006DC190914502292F332727FD309523306C
:101100003105C9F48091680390E02C2F332727FD27
:101110003095281739070CF059C18091440281504D
:101120008C1B0E942504809144028F5F8C0F0E94CB
:101130002504CF5FE7CF80914402890F482F4E0FDF
:101140001EEF140F913021F4CE2FC095C80F09C0A7
:10115000C82FCE1B943021F4C4501CEF140F01C0D3
:10116000C25080914102811107C081E08093410209
:10117000C0933E0210933D022350310937FF03C054
:10118000319521953109DBEFDE0FD21BD7FD19C058
:1011900011E0943009F010E0C0E0012F000F8091C1
:1011A0003E028C1B8D1B811B0E94250480913D02F9
:1011B000801B8D0F8C0F0E942504CF5FC53079F7FF
:1011C00005C14E2F50E0421753070CF4FFC0C11762
:1011D0000CF0FCC08C2F0E942504CF5FF8CF6091EB
:1011E0004502262F332727FD309524303105C9F4D9
:1011F0008091680390E02C2F332727FD3095281726
:1012000039070CF0E3C08091440281508C1B0E948E
:101210002504809144028F5F8C0F0E942504CF5FCC
:10122000E7CF40914402613021F4C42FCE1BCF5F41
:101230000FC0C901049797FF03C09195819591094B
:10124000C62FC40F029714F0C15001C0C250CE1B6C
:10125000DEEFDE0FD40FD60F80914202811107C05E
:1012600081E080934202C0933E02D0933D021BEF87
:101270001E0FA9014350510957FF03C051954195D5
:101280005109141B1116DCF463301CF002E0D0E0AD
:1012900002C001E0DFEFC0E080913E028C1B811BA9
:1012A0008D1B0E94250480913D02810F8D1B801BA8
:1012B0008C0F0E942504CF5FC53071F787C04E2F79
:1012C00050E02450310937FF03C031952195310991
:1012D000421753070CF47AC0CD170CF077C08C2F4F
:1012E0000E942504CF5FF8CF80914502282F332735
:1012F00027FD309525303105C9F48091680390E0D1
:101300002C2F332727FD3095281739070CF05EC0A6
:101310008091440281508C1B0E94250480914402DC
:101320008F5F8C0F0E942504CF5FE7CF909144021E
:10133000C92FC80FC250CE1BDEEFDE0FD90FD80F5A
:1013400090914302911107C091E090934302C093A2
:101350003E02D0933D021BEF1E0FA90143505109DD
:1013600057FF03C0519541955109141B1116DCF428
:1013700083301CF002E0D0E002C001E0DFEFC0E00B
:1013800080913E028C1B811B8D1B0E942504809145
:101390003D02810F8D1B801B8C0F0E942504CF5FA7
:1013A000C53071F713C04E2F50E02550310937FF7B
:1013B00003C0319521953109421753073CF0CD17F1
:1013C0002CF48C2F0E942504CF5FF9CF80916B0302
:1013D0008F5F80936B03863088F121E020936B034D
:1013E000809101018F5F80930101823339F5109262
:1013F00001018091670391E0980F90936703843017
:10140000E8F0109267033091680381E0830F8093C6
:10141000680380914502992787FD9095830F911D60
:10142000439764F02093680310923F0210924002A9
:10143000109241021092420210924302DF91CF912A
:101440001F910F910895BF92CF92DF92EF92FF927A
:101450000F931F93CF93DF939091100320E030E020
:10146000CFEFDCE0F901EE0FFF1FE20FF31FE85FA3
:10147000FD4F82818130B1F41282492F50E080818A
:10148000DA01AA0FBB1FA850BD4F8C938181119622
:101490008C93FA01E451FD4FC08381E0890F6D2FD9
:1014A0000E9404112F5F3F4F2C303105D9F69093E5
:1014B0001003E091EB02F0E0DF01A152BD4F8C91EF
:1014C000813089F4EE0FFF1FE850FD4F80810E94AC
:1014D000E403E091EB02F0E0EE0FFF1FE850FD4F58
:1014E00081810E94EF038091EB028F5F8C3019F0B5
:1014F0008093EB0202C01092EB028091680391E0AE
:10150000980F90936803882309F457C010926803DA
:101510008091DE028F5F8093DE02C2EDD2E009EFA0
:10152000C02E02E0D02E0FED12E08CEEE82E82E00D
:10153000F82EBB24B3948091DE02811108C09881FB
:10154000992311F0F801B082F70190819883999165
:10155000891307C0F601808190E00E944B04F801D6
:101560001082F2E0CF0ED11C0F5F1F4F8FEFE81AF1
:10157000F80AE2E0CE3DDE07F1F68091D1028F5FFE
:101580008093D1028034C8F01092D1028091D002B1
:101590008F5F8093D002843080F01092D002ECEE06
:1015A000F2E080818A3010F4108202C08150808382
:1015B000319682E0E83FF807A1F7DF91CF911F91C4
:1015C0000F91FF90EF90DF90CF90BF900895BF9262
:1015D000CF92DF92EF92FF920F931F93CF93DF93FF
:1015E00080916B0391E0980F90936B0381115CC025
:1015F0008091670391E0980F90936703803508F41A
:1016000053C01092670380910401909105010E94DC
:10161000911180910401909105010F96909305011D
:10162000809304010091CA0210E00E948C11C5E071
:10163000D0E0BE010E9410111816190634F40E9461
:101640008C11BE010E94101101C083E0F801EE0F61
:10165000FF1FEE54FD4F80830091CA0210E00E94EC
:101660008C11CEE0D0E0BE010E94101118161906B0
:1016700034F40E948C11BE010E94101101C088E058
:10168000F801EE0FFF1FEE54FD4F81838091CA02D7
:10169000E82FF0E0EA55FD4F9FEF90838F5F6CE0FD
:1016A0000E9404119093CA02E091A502F0E0DF01CC
:1016B000A756BD4F8C91813089F4EE0FFF1FEE5479
:1016C000FD4F80810E94E403E091A502F0E0EE0F5F
:1016D000FF1FEE54FD4F81810E94EF038091A50210
:1016E0008F5F8C3019F08093A50202C01092A50282
:1016F0008091680391E0980F90936803882309F420
:1017000057C010926803809198028F5F809398026F
:10171000CCE8D2E0E3EBCE2EE2E0DE2E09E912E0E7
:10172000F6EAEF2EF2E0FF2EBB24B39480919802EC
:10173000811108C09881992311F0F801B082F70156
:10174000908198839991891307C0F601808190E078
:101750000E944B04F8011082F2E0CF0ED11C0F5F03
:101760001F4F8FEFE81AF80AE2E0C839DE07F1F6FA
:1017700080918B028F5F80938B028435C8F010922A
:101780008B0280918A028F5F80938A02843080F07E
:1017900010928A02E6EAF2E080818A3010F4108228
:1017A00002C081508083319682E0E23BF807A1F7C6
:1017B000DF91CF911F910F91FF90EF90DF90CF902D
:1017C000BF900895BF92CF92DF92EF92FF920F9356
:1017D0001F93CF93DF9380916B0391E0980F9093C9
:1017E0006B0381115CC08091670391E0980F909327
:1017F0006703803508F453C010926703809102019B
:10180000909103010E949111809102019091030136
:101810000F9690930301809302010091890210E0DA
:101820000E948C11C5E0D0E0BE010E941011181674
:10183000190634F40E948C11BE010E94101101C0DF
:1018400083E0F801EE0FFF1FEF58FD4F80830091FA
:10185000890210E00E948C11CEE0D0E0BE010E940F
:1018600010111816190634F40E948C11BE010E9442
:10187000101101C088E0F801EE0FFF1FEF58FD4F77
:10188000818380918902E82FF0E0EB59FD4F9AE0C7
:1018900090838F5F6CE00E94041190938902E09125
:1018A0006402F0E0DF01A85ABD4F8C91813089F4C9
:1018B000EE0FFF1FEF58FD4F80810E94E403E0917F
:1018C0006402F0E0EE0FFF1FEF58FD4F81810E9490
:1018D000EF03809164028F5F8C3019F08093640273
:1018E00002C0109264028091680391E0980F909377
:1018F0006803882309F455C0109268038091570249
:101900008F5F80935702CBE4D2E012E7C12E12E042
:10191000D12E08E512E085E6E82E82E0F82EBB2401
:10192000B39480915702811108C09881992311F0D6
:10193000F801B082F701908198839991891307C0CB
:10194000F601808190E00E944B04F8011082F2E0E1
:10195000CF0ED11C0F5F1F4F8FEFE81AF80AE2E09D
:10196000C735DE07F1F680914A028F5F80934A0205
:101970008034B8F010924A02809149028F5F8093C0
:101980004902843070F010924902E5E6F2E080816D
:101990008F3F11F08F5F8083319682E0E137F80747
:1019A000B1F7DF91CF911F910F91FF90EF90DF90F2
:1019B000CF90BF900895E1E8F0E080818860808357
:1019C0008081816080838FB7F8941092890093ECB6
:1019D000909388008FBF0C94D110EFE6F0E08081E7
:1019E0008260808381E0809365030C947104CF93BF
:1019F00080916F008D7F80936F0010926503C0E02F
:101A00008C2F0E94DE10CF5FCC30D1F7CF9108959C
:101A1000E82FF0E0E75BFC4F60830895E82FF0E0EB
:101A2000E75BFC4F208130E08FEF90E0861B91094F
:101A30008217930714F48FEF02C08081860F808392
:101A40000895682F82E00C940E0DE82FF0E0E75B1C
:101A5000FC4F8081861710F4108208958081861BC8
:101A600080830895682F82E00C94250D60914803CF
:101A700080E090E021E030E0A901082E01C0440F91
:101A80000A94EAF7462B01968C30910511F0642FE9
:101A9000F3CF40934803089510924803089590911E
:101AA000470321E030E0082E01C0220F0A94EAF734
:101AB000662311F0292B02C0209529232093470388
:101AC0000895CF93DF93D82FC0E06D2F8C2F0E9405
:101AD0004F0DCF5FCC30C9F7DF91CF910895809340
:101AE0004603089560913C0280E090E021E030E000
:101AF000A901082E01C0440F0A94EAF7462B01966B
:101B00008E30910511F0642FF3CF40933C0208957D
:101B100010923C0208958093380308951F920F920B
:101B20000FB60F9211242F933F934F935F936F93B0
:101B30007F938F939F93AF93BF93EF93FF93809186
:101B40003703813069F4809136038F5F80933603C9
:101B50000E94D31080913603853011F41092360321
:101B6000809135038F5F8093350381110BC0909175
:101B70005903992319F091E09093370390914B0307
:101B80009093590390915903891305C082E00E94F4
:101B9000DE1010923703809134038F5F80933403FB
:101BA000803F08F466C01092340390914803992353
:101BB00009F1809133038F5F8093330320914603B3
:101BC0002817C0F41092330392FF14C080913C0395
:101BD000882321F0815080933C030CC080914703FF
:101BE00061E082FF04C082E00E94250D03C082E014
:101BF0000E940E0D30913C023323D9F180913203C3
:101C00008F5F8093320390913803981790F510926C
:101C1000320332FF2EC020913002E22FF0E0EF5C61
:101C2000FE4F808180934B0380912C0290912D0276
:101C300082FF14C0211110C08B7F90932D028093DE
:101C40002C028091390382FF14C03B7F30933C0209
:101C50008B7F809339030DC0215009C02F3731F499
:101C6000846090932D0280932C0203C02F5F2093F9
:101C70003002FF91EF91BF91AF919F918F917F9132
:101C80006F915F914F913F912F910F900FBE0F90E9
:101C90001F901895FF920F931F93CF93DF9380911E
:101CA00031038F5F80933103833008F454C0109266
:101CB000310380912C0290912D0200913903F09014
:101CC0003C02EEE2F2E020E030E0C1E0D0E0108142
:101CD000A12FB0E0AF5CBE4F4C91D901A75BBC4FC8
:101CE0004C93BE01022E02C0660F771F0A94E2F7E2
:101CF000AB0148235923452BB9F0111113C0AB0197
:101D00004095509548235923802F90E0022E02C021
:101D1000969587950A94E2F780FF0EC06095F622AB
:101D200006230AC0115006C0183719F4862B972BCA
:101D300004C01F5F108301C0CA012F5F3F4F31965F
:101D40002E30310521F690932D0280932C020093C2
:101D50003903F0923C02DF91CF911F910F91FF90D8
:101D600008950F931F93CF93DF938091CD0291E05D
:101D7000980F9093CD020E94E4038091CD028630AB
:101D800018F081E08093CD028091CC028F5F809328
:101D9000CC02C0E0D0E08091CC028E01095A1C4FE9
:101DA00081110EC0F8018081882321F08C2F8F5F74
:101DB0000E942504FE01E75BFC4F8081F8018083CF
:101DC000F80180819091CC022196981303C0CE0136
:101DD0000E944B04CE30D105F1F68091CB028F5F8B
:101DE0008E3538F48093CB02DF91CF911F910F9104
:101DF00008951092CB02DF91CF911F910F910C9417
:101E00004A0E2091070230E0F901EE0FFF1FE20FAA
:101E1000F31FE85FFD4F80838091070290E0FC0193
:101E2000EE0FFF1FE80FF91FE85FFD4F6183809100
:101E3000070290E0FC01EE0FFF1FE80FF91FE85FBB
:101E4000FD4F81E08283809107028F5F80930702BC
:101E5000809107026CE00E9404119093070208959C
:101E6000BF92CF92DF92EF92FF920F931F93CF9387
:101E7000DF93D82F482F50E02EE030E0241B350BA5
:101E8000241735070CF49A01122FC0E007E0B6E0E2
:101E9000FB2EEE24E39484E0D82E93E0C92E22E0BA
:101EA000B22E0E9474048D2F8C1B0E9425048C2F4F
:101EB0008D0F0E9425048BE095E08150C9F1EFE978
:101EC000FFE03197F1F700C0000018B8EFE9FFE03C
:101ED0003197F1F700C0000008B9EFE9FFE0319752
:101EE000F1F700C00000F8B8EFE9FFE03197F1F733
:101EF00000C00000E8B8EFE9FFE03197F1F700C05B
:101F00000000D8B8EFE9FFE03197F1F700C000001A
:101F1000C8B8EFE9FFE03197F1F700C00000B8B8AA
:101F2000EFE9FFE03197F1F700C0000098B9C5CFA5
:101F3000CF5F1C1708F0B5CFDF91CF911F910F91A4
:101F4000FF90EF90DF90CF90BF900895CF93DF93F5
:101F5000C1E085E088B9D0E0DF5F8D2F0E94EF03FC
:101F60002FEF81EE94E0215080409040E1F700C0D7
:101F70000000DE3089F7CF5FC63031F0C53011F098
:101F80008C2FE8CF81E0E6CF80E00E94EF03C1E034
:101F90008C2F0E94300FCF5FCF30D1F7C0E0CF5FE2
:101FA0008C2F0E9425048FE18150A9F09AE0EFE97F
:101FB000FFE03197F1F700C00000913029F0953033
:101FC00029F0292F277003C025E001C021E028B99E
:101FD000915069F7E9CFCE3011F7FFEF21EE84E0A1
:101FE000F15020408040E1F700C0000018B80E9486
:101FF000710493E02EE2215011F42EE21EC08AE01B
:10200000EFE9FFE03197F1F700C00000813029F0DF
:10201000853029F0382F377003C035E001C031E03A
:1020200038B9815069F7E7CFEFE9FFE03197F1F771
:1020300000C0000018B88150B9F7215011F08AE0B3
:10204000F3CF9150B9F6DF91CF910895CF930E94CD
:10205000740480916B030E94E403C0916B03C13050
:10206000B9F4809168030E942504809167038F5F13
:1020700080936703883778F1109267038091680333
:102080008F5F809368038F3030F1C093680323C063
:10209000C23011F483E009C0C33089F482E00E94A9
:1020A000250483E00E94250484E00E94250489E041
:1020B0000E9425048AE00E9425048BE00AC0C450D7
:1020C000C23048F48AE00E9425048BE00E94250477
:1020D0008CE00E9425048FE99FE00197F1F700C092
:1020E000000080916B038F5F863008F081E0809361
:1020F0006B03CF910895CF93DF93D82FC0E06D2F5E
:102100008C2F0E94080DCF5FCC30C9F7DF91CF91A3
:102110000895CF93C82F809366038823D9F182E076
:102120008093B201C73090F4C430E0F4C13090F134
:102130000E94ED0C0E944C0D0E94880DEC2FF0E0E7
:10214000E454FF4F8491CF910C947B10C730A9F0D9
:10215000C83001F50E94ED0C0E94360D0E94880DDA
:1021600081E012C00E94ED0C0E94720D0E944C0D85
:1021700086E08C1BCF910C948B0D0E94ED0C0E947D
:10218000360D0E94880D80E00E94610D83E0CF91A2
:102190000C946F0D0E944C0D0E94880DCF910C94F1
:1021A000F70C18B80895813021F0853021F0877040
:1021B00003C085E001C081E088B9089518B808958A
:1021C000CF93DF9300D000D01F92CDB7DEB78091C0
:1021D0006603873021F480E20E94320D05C088300A
:1021E00029F480E20E94210D81E006C09FEF980F44
:1021F00081E0983008F080E00F900F900F900F90E2
:102200000F90DF91CF910895991B79E004C0991F39
:10221000961708F0961B881F7A95C9F78095089540
:1022200097FB072E16F4009407D077FD09D00E9483
:102230002A1107FC05D03EF4909581959F4F089593
:10224000709561957F4F0895EE0FFF1F0590F491F3
:10225000E02D0994AA1BBB1B51E107C0AA1FBB1F9D
:10226000A617B70710F0A61BB70B881F991F5A9522
:10227000A9F780959095BC01CD0108958F929F920A
:10228000AF92BF92CF92DF92EF92FF92CF93DF9304
:10229000EC01688179818A819B81611571058105D5
:1022A000910521F464E279ED8BE597E02DE133EFC0
:1022B00041E050E00E94B81149015A019B01AC0174
:1022C000A7EAB1E40E94A5116B017C01ACEEB4EF6A
:1022D000A50194010E94B311C60ED71EE81EF91E77
:1022E000F7FE06C081E0C81AD108E10880E8F80AC4
:1022F000C882D982EA82FB82C6019F77DF91CF91A3
:10230000FF90EF90DF90CF90BF90AF909F908F9015
:1023100008950E943E1108958DE291E00E943E11C1
:102320000895A0E0B0E080932D0190932E01A0933A
:102330002F01B09330010895FB01DC0102C0019030
:102340000D9241505040D8F708950E94D711A59F93
:10235000900DB49F900DA49F800D911D11240895A0
:10236000B7FF0C94A5110E94A511821B930B089531
:10237000052E97FB1EF400940E94CF1157FD07D045
:102380000E94E61107FC03D04EF40C94CF11509537
:102390004095309521953F4F4F4F5F4F0895909551
:1023A0008095709561957F4F8F4F9F4F0895A29FA5
:1023B000B001B39FC001A39F700D811D1124911D19
:1023C000B29F700D811D1124911D0895A1E21A2E56
:1023D000AA1BBB1BFD010DC0AA1FBB1FEE1FFF1FC9
:1023E000A217B307E407F50720F0A21BB30BE40B19
:1023F000F50B661F771F881F991F1A9469F7609560
:102400007095809590959B01AC01BD01CF01089519
:04241000F894FFCF6E
:10241400010164006400013C010000000178040231
:102424009E0603230A044A0505280706900507FDAE
:102434000508B10E09B0040AE70A0BE20B0100001B
:102444000000000000000000000000010101020281
:10245400020303040405050606070808090A0B0B12
:102464000C0D0E0F10111213151617191A1B1D1E21
:102474002022232527292B2D2F313335383A3D3F70
:102484004244474A4D505356595C5F6266696C70CA
:1024940074777B7E82868A8E9195999DA1A5A9AD3C
:1024A400B0B4B8BCC0C3C7CBCED2D5D8DBDFE2E46E
:1024B400E7EAECEFF1F3F5F7F8FAFBFCFDFEFFFFBA
:0224C400FF0017
:00000001FF
